:020000040800F2
:10000000080D0020C1010008E90D00084D0C000892
:10001000E50D000805060008492100080000000061
:10002000000000000000000000000000951600081D
:100030005D06000800000000650E0008B917000802
:10004000DB010008DB010008DB010008DB01000820
:10005000DB010008DB010008DB010008DB01000810
:10006000DB010008DB010008DB010008DB01000800
:10007000DB010008DB010008DB010008DB010008F0
:10008000DB010008DB010008DB010008DB010008E0
:10009000DB010008DB010008DB0100085507000850
:1000A000DB010008DB010008DB010008DB010008C0
:1000B0006D190008DB010008DB010008DB01000806
:1000C000DB010008DB010008DB010008DB010008A0
:1000D000DB010008AD1D0008DB010008DB010008A2
:1000E000DB010008DB010008DB010008DB01000880
:1000F000DB010008DB010008DB010008DB01000870
:10010000DB010008DB010008DB010008DB0100085F
:10011000DB010008DB010008DB010008DB0100084F
:10012000DB010008DB010008DB010008DB0100083F
:10013000DB010008DB010008DB010008DB0100082F
:10014000DB010008DB010008DB010008DB0100081F
:10015000DB010008DB010008DB010008DB0100080F
:10016000DB010008DB010008DB010008DB010008FF
:10017000DB010008DB010008DB010008DB010008EF
:10018000DB010008DB010008DB010008DB010008DF
:10019000DB010008DB010008DB010008DB010008CF
:1001A000DB010008DB010008DB010008DFF80CD0F0
:1001B00000F04AF800480047C1300008080D002050
:1001C0000648804706480047FEE7FEE7FEE7FEE7F1
:1001D000FEE7FEE7FEE7FEE7FEE7FEE7051900089B
:1001E000AD0100082DE9F05F0546002092469B46D0
:1001F00088460646814640241BE02846414647463D
:10020000224600F042F853465A46C01A914110D394
:1002100011461846224600F029F82D1A67EB01080E
:100220004F4622460120002100F020F817EB00097C
:100230004E41201EA4F10104DFDC484631462A4627
:100240004346BDE8F09F0000064C074D06E0E0681D
:1002500040F0010394E8070098471034AC42F6D30D
:10026000FFF7A8FF3431000854310008202A04DBCE
:10027000203A00FA02F1002070479140C2F12003B9
:1002800020FA03F3194390407047202A04DB203AF8
:1002900021FA02F00021704721FA02F3D040C2F1A6
:1002A00020029140084319467047000000B585B010
:1002B0000020ADF800004FF48270ADF8020000207D
:1002C000ADF804000220ADF806000120ADF80800EA
:1002D0004002ADF80A002820ADF80C000020ADF86F
:1002E0000E000720ADF810006946044801F0B4F98B
:1002F0000121024801F028F905B000BD003001409D
:100300001CB5012140F2111001F050F801208DF8C8
:10031000040000208DF806008DF8070003208DF8FA
:1003200005000420009069460F4800F0CFFA08202D
:10033000009069460C4800F0C9FA10200090694608
:100340000A4800F0C3FA00208DF804008DF806007A
:100350008DF8070002208DF80500C0010090694665
:10036000034800F0B3FA1CBD001002400000024038
:10037000002002402DE9FF4700245CE0324830F9BC
:100380001450324830F9140000282BDA684205B2C4
:100390000A2095FBF0F100FB1156642095FBF0F16B
:1003A00000FB11500A2190FBF1F74FF47A7095FB96
:1003B000F0F100FB1150642190FBF1F84FF47A70DA
:1003C00095FBF0F92148CDE90098CDE9027630F8A7
:1003D000140083B21D4830F91420611C1CA001F0E8
:1003E000B5FE26E00A2095FBF0F100FB11566420D3
:1003F00095FBF0F100FB11500A2190FBF1F74FF44F
:100400007A7095FBF0F100FB1150642190FBF1F83C
:100410004FF47A7095FBF0F90C48CDE90098CDE9DE
:10042000027630F9143030F91420611C12A001F06A
:100430008DFE601C04B2012CA0DB012118A001F08C
:1004400085FEBDE8FF87000050000020600000200E
:100450002043482564203D202536642C3078253003
:10046000345820282D25642E2564256425642056C3
:1004700029200D0A000000002043482564203D206B
:100480002536642C30782530345820282025642ED9
:10049000256425642564205629200D0A00000000EB
:1004A0001B5B25644100000070B5002424E0204659
:1004B00000F02CF8124921F81400084630F91450C5
:1004C0001048007858B941F28830684347F6FF7108
:1004D00090FBF1F000B20C4921F814000AE042F25E
:1004E0001070684347F6FF7190FBF1F000B20649C7
:1004F00021F81400601CC4B2012CD8DB70BD0000D0
:10050000600000202400002050000020014601204F
:1005100080F3108800BF044830F91120002080F3D8
:10052000108800BF10467047F808002010B504215D
:100530000B4800F03FFA0421094800F03DFA04217D
:10054000074800F039FA0421054800F035FA042183
:10055000034800F031FA0421014800F02BFA10BDE5
:100560000010024010B54FF48071124800F019FAE3
:10057000F8B91021104800F01DFA002411E002F033
:1005800037FD0E4921F8140002F032FD0B4911F835
:10059000141000EB012000B2084921F81400601C7F
:1005A000C4B2012CEBDB1021034800F005FA00F087
:1005B00015F810BD0020024000000240F80800209D
:1005C00010B5044624B90021042000F029FB03E003
:1005D0000121042000F024FB10BD000010B508210B
:1005E000074800F0E7F90821054800F0E3F9082181
:1005F000034800F0DFF90821014800F0DDF910BDE3
:100600000010024000BFFEE7014609B90B487047E1
:10061000012901D10020FAE7022901D10020F6E7E3
:10062000032901D10020F2E7042901D10020EEE7DF
:10063000052901D10020EAE70020E8E7A00000201A
:1006400008B525208DF8000000208DF8020001205B
:100650008DF80300684600F0C9FB08BD7047000034
:1006600008B501201949087002F0DEFC01210020C4
:1006700002F070FC00F02CF827E002F001FA0020F4
:1006800001F0BCFF28B1FFF76DFFFFF70DFFFFF78B
:1006900071FE6946002002F0DBFCB0B19DF800005D
:1006A00031280ED10948007818B90120074908708F
:1006B00002E000200549087004490878FFF780FF30
:1006C00002E000F005F800BF00BFD6E724000020DC
:1006D00010B506A001F03AFD12A001F037FD16A0FA
:1006E00001F034FD1AA001F031FD10BD0D0A2D2DD1
:1006F0002D2D2D2D2D2D2D2D2D2D2D2D2D2D2D2D2A
:100700002D2D2D2D2D2D2D2D2D2D2D2D2D2D2D2D19
:100710002D2D2D2D2D2D2D2D2D2D2D2D2D2D0D0A4C
:1007200000000000C7EBD1A1D4F1B2D9D7F7C3FCC8
:10073000C1EE3A0D0A00000031202D20C7D0BBBB0E
:10074000C1BFB3CC283556BBF2313056290D0A0053
:100750000D0A00007047000051B18200A2F1C042B2
:10076000126842F001038200A2F1C042136009E066
:100770008200A2F1C0421268034B1A408300A3F129
:10078000C0431A6070470000FEFF0F0010B5002242
:10079000002103689B00A3F1C04319684A4B19402C
:1007A000D0E901342343C4682343046923434469E3
:1007B000234384692343C4692343046A2343446A6B
:1007C0002343846A2343C46A2343046B2343446B57
:1007D0002343194303689B00A3F1C0431960836856
:1007E000082B0BD103689B00A3F1C0431B6843F0A7
:1007F000400403689B00A3F1C0431C60436BB3F546
:10080000801F19D10368BBB14FF020435B6823F40C
:1008100070024FF020431B68446B23434FF0204489
:10082000236023461B6843F480732360836B1B8A19
:100830005B1E42EA03536360836B1B68846B6468CE
:1008400043EA0413846BA46843EA0423846BA489F9
:1008500043EA0443846B248A43EA0453846B247D73
:1008600043EA0463846BA46923430468641CA40002
:10087000A4F1C0442360836AB3F5804F1BD1C36BDE
:100880001B68C46B646843EA0413C46BA46843EA3E
:100890000423C46B248A43EA0453C46B247D43EAD3
:1008A0000463C46BA46923430468A400A4F1C04496
:1008B000C4F8043107E06FF0704403689B00A3F1B3
:1008C000C043C3F8044110BD8000E7FFF0B50A46FD
:1008D00000210023002400BF3DE0012505FA01F3BB
:1008E000156805EA03049C4234D105684F000326CD
:1008F000BE40B543056015794E00B54006683543E6
:1009000005601579012D02D01579022D16D1856863
:100910004F000326BE40B543856055794E00B54073
:10092000866835438560456801268E40B54345603D
:10093000456896798E40B6B235434560C5684F002C
:100940000326BE40B543C560D5794E00B540C668A4
:100950003543C560491C1029BFD3F0BDF0B5002355
:1009600000244D07ED0E02FA05F3CE1000F120052C
:1009700055F826504E07F70E0F26BE40B543CF1050
:1009800000F1200646F82750CE1000F1200555F85A
:10099000265045EA0304CE1000F1200545F8264014
:1009A000F0BD0246002013690B400BB1012000E0AE
:1009B0000020704741837047018370470AB101836B
:1009C00000E04183704700B597B0032000900020FD
:1009D00001900620029001200390002004900590D1
:1009E00006900220079000200890099020200A908D
:1009F00000200B900C900D900E904FF480500F90B3
:100A0000002010901190129013901490CDF854D0B3
:100A1000CDF858D007A8FFF7B9FE01210220FFF753
:100A20009BFE17B000BD00001CB501214FF4EC7017
:100A300000F0BCFC0121084600F0C8FC0C2200219B
:100A40007248FFF78BFF0C2201217048FFF786FFE9
:100A50000C2204216D48FFF781FF0C2205216B4811
:100A6000FFF77CFF0C2208216848FFF777FF0C2274
:100A700009216648FFF772FF0C220A216348FFF73D
:100A80006DFF0C220E216148FFF768FF0C220F2139
:100A90005E48FFF763FF02208DF8040003208DF805
:100AA000050000208DF806008DF807004CF2337029
:100AB000009069465548FFF709FF0C22072154486A
:100AC000FFF74CFF0C2208215148FFF747FF0C228B
:100AD00009214F48FFF742FF0C220A214C48FFF73B
:100AE0003DFF0C220B214A48FFF738FF0C2211462C
:100AF0004748FFF733FF0C220D214548FFF72EFF33
:100B00000C220E214248FFF729FF0C220F214048FA
:100B1000FFF724FF4FF68070009069463C48FFF7CE
:100B2000D5FE0C2200213B48FFF718FF0C220121C3
:100B30003848FFF713FF0C2209213648FFF70EFF54
:100B400040F20320009069463248FFF7BFFE0C22B6
:100B500008213148FFF702FF0C2209212E48FFF738
:100B6000FDFE0C220A212C48FFF7F8FE0C220B2177
:100B70002948FFF7F3FE0C2211462748FFF7EEFE47
:100B80000C220D212448FFF7E9FE0C220E212248F9
:100B9000FFF7E4FE0C220F211F48FFF7DFFE4FF4A2
:100BA0007F40009069461C48FFF790FE0C22002110
:100BB0001A48FFF7D3FE0C2201211848FFF7CEFE9A
:100BC0000C2202211548FFF7C9FE0C22032113480D
:100BD000FFF7C4FE0C2206211048FFF7BFFE0C22CF
:100BE00007210E48FFF7BAFE0C2209210B48FFF738
:100BF000B5FE0C220A210948FFF7B0FE40F2CF6093
:100C0000009069460548FFF761FE1CBD000C0240DC
:100C10000010024000180240001C02400020024068
:100C200029B9084A12688243064B1A6004E0054A53
:100C300012680243034B1A60024A1268024B1A60A0
:100C400070470000200000200010006409A100206F
:100C50000BE00A5C124B9A8000BF114A128802F026
:100C60004002002AF9D0421CD0B22A28F1D300BF9A
:100C7000FEE700000D0A456E7465722048617264DB
:100C80004661756C745F48616E646C65722C2053AC
:100C9000797374656D2048616C742E0D0A00000034
:100CA0000010014000B587B00121084600F07EFB2E
:100CB0000121102000F0AAFB072209212248FFF79A
:100CC0004DFE07220A212048FFF748FE00208DF83C
:100CD0001A0001208DF81B0002208DF81800000278
:100CE000059002208DF8190005A91748FFF7EEFDC1
:100CF00002208DF818004002059005A91248FFF760
:100D0000E5FD4FF4E13001900020ADF80800ADF8AA
:100D10000A00ADF80C00ADF810000C20ADF80E0084
:100D200001A90A4801F0AEF8012240F22551074816
:100D300001F083F80121054801F049F840210348FA
:100D400001F03CF807B000BD000002400010014077
:100D50000448006900F0010008B901207047002034
:100D6000FCE70000000002400448006800F4005066
:100D700008B9012070470020FCE70000100802407D
:100D80001CB50121802000F011FB4FF48060009021
:100D900001208DF8040000208DF8060001208DF858
:100DA000070000208DF8050069460D48FFF78EFD0D
:100DB0004FF40060009069460948FFF787FD4FF443
:100DC0008050009069460648FFF780FD4FF4806030
:100DD00003491831088040000880400008801CBD8D
:100DE000001C024000BFFEE77047000070B5002104
:100DF00000230F22C4781CB3174C246804F4E06469
:100E0000C4F5E064C4F30721C1F10404E3B20A416C
:100E100044789C40E1B28478144021430C07210EB1
:100E20000E4C05786155047804F01F050124AC4090
:100E300005786D11AD0005F1E025C5F8004109E028
:100E4000047804F01F050124AC40054D06787611A6
:100E500045F8264070BD00000CED00E000E400E025
:100E600080E100E07047000010B517A001F06EF9B6
:100E700019A001F06BF920A001F068F929A001F098
:100E800065F932A001F062F93BA001F05FF945A0DD
:100E900001F05CF94EA001F059F95AA001F056F9A1
:100EA00063A001F053F96EA001F050F97AA001F0AF
:100EB0004DF987A001F04AF993A001F047F99DA0F0
:100EC00001F044F910BD0000BDD3CFDFB7BDB7A816
:100ED0003A200D0A00000000414437363036C4A3E2
:100EE000BFE92020202020202009737069C4A3CAF4
:100EF000BD200D0A0000000020202B3556202020A8
:100F0000202020203C2D2D2D2D2D2D202020352E54
:100F100030562020202020203556B9A9B5E70D0AEB
:100F2000000000002020474E4420202020202020C8
:100F30002D2D2D2D2D2D2D202020474E44202020DD
:100F400020202020B5D80D0A0000000020204353A7
:100F500020202020202020203C2D2D2D2D2D2D2027
:100F60002020504731302020202020205350495F3E
:100F700043530D0A00000000202052442F53434CDD
:100F80004B2020203C2D2D2D2D2D2D20202050427A
:100F900033202020202020205350495F53434C4BC6
:100FA0000D0A000020204442372F444F5554202082
:100FB0002D2D2D2D2D2D3E2020205042342020205F
:100FC000202020205350495F4D49534F0D0A000007
:100FD0002020524147452020202020203C2D2D2D2F
:100FE0002D2D2D20202044322020202020202020A4
:100FF000C4A3C4E2D0C5BAC5CAE4C8EBC1BFB3CC70
:101000000D0A0000202052535420202020202020B0
:101010003C2D2D2D2D2D2D202020504337202020FC
:1010200020202020B8B4CEBBD0C5BAC50D0A000020
:101030002020435641204356422020203C2D2D2D78
:101040002D2D2D2020205043362020202020202010
:10105000C6F4B6AF4144D7AABBBB0D0A00000000DE
:1010600020204F5330202020202020203C2D2D2DCB
:101070002D2D2D202020474E4420202020202020D0
:10108000B9FDB2C9D1F9D2FDBDC53028C4ACC8CFB5
:10109000BDD3B5D8290D0A0020204F533120202080
:1010A000202020203C2D2D2D2D2D2D202020474E81
:1010B0004420202020202020B9FDB2C9D1F9D2FD42
:1010C000BDC53128C4ACC8CFBDD3B5D8290D0A00E1
:1010D00020204F5332202020202020203C2D2D2D59
:1010E0002D2D2D202020474E442020202020202060
:1010F000B9FDB2C9D1F9D2FDBDC53228C4ACC8CF43
:10110000BDD3B5D8290D0A002020425553592020BF
:10111000202020202D2D2D2D2D2D3E20202050450E
:10112000342020202020202042555359D0C5BAC554
:101130000D0A0000B4F2D3A1B2C9BCAFCAFDBEDD36
:101140003A200D0A000000002DE9F0412148046812
:10115000001D0568001D06681F4800681F49B0FB98
:10116000F1F739461EA000F0F1FF23462A4631462A
:1011700026A000F0EBFF2AA000F0E8FF29A000F075
:10118000E5FF38A142A000F0E1FF46A146A000F033
:10119000DDFF4AA14CA000F0D9FF00230522012168
:1011A0004EA000F0D3FF5BA000F0D0FF5BA000F0EA
:1011B000CDFF60A000F0CAFF63A000F0C7FF69A0E8
:1011C00000F0C4FF6FA000F0C1FF16A000F0BEFF4A
:1011D000BDE8F081107AFF1F3800002040420F0068
:1011E0000D0A435055203A2053544D333246343281
:1011F0003942492C204C5146503230382C20D6F7F9
:10120000C6B53A2025644D487A0D0A005549442058
:101210003D20253038582025303858202530385882
:101220000A0D00002A2A2A2A2A2A2A2A2A2A2A2AAF
:101230002A2A2A2A2A2A2A2A2A2A2A2A2A2A2A2A0E
:101240002A2A2A2A2A2A2A2A2A2A2A2A2A2A2A2AFE
:101250002A2A2A2A2A2A2A2A2A2A2A2A2A2A2A2AEE
:101260002A0A0D0056362D414437363036A3A838A9
:10127000CDA8B5C03136CEBBCDACB2BD414443A341
:10128000A9737069C4A3CABDC0FDB3CC000000003F
:101290002A20C0FDB3CCC3FBB3C62020203A2025B2
:1012A000730D0A00312E30002A20C0FDB3CCB0E609
:1012B000B1BE2020203A2025730D0A00323031358E
:1012C0002D31322D333000002A20B7A2B2BCC8D550
:1012D000C6DA2020203A2025730D0A002A20B9CC36
:1012E000BCFEBFE2B0E6B1BE203A205625642E25F2
:1012F000642E2564202853544D3332463478785F69
:101300005374645065726970685F4472697665727F
:10131000290D0A002A200D0A000000002A20515140
:10132000202020203A2031323935373434363330DA
:10133000200D0A002A20CDFACDFA20203A20617231
:101340006D666C790D0A00002A20456D61696C207C
:101350003A2061726D666C794071712E636F6D20F9
:101360000D0A00002A20CCD4B1A6B5EA3A20617259
:101370006D666C792E74616F62616F2E636F6D0D97
:101380000A0000002A20436F707972696768742030
:101390007777772E61726D666C792E636F6D20B0F2
:1013A000B2B8BBC0B3B5E7D7D30D0A0029B1064A1E
:1013B00012680243044B1A6004E0034A1268824335
:1013C000014B1A60704700003038024029B1064ACC
:1013D00012680243044B1A6004E0034A1268824315
:1013E000014B1A60704700003838024029B1064AA4
:1013F00012680243044B1A6004E0034A12688243F5
:10140000014B1A60704700004038024029B1064A7B
:1014100012680243044B1A6004E0034A12688243D4
:10142000014B1A607047000044380240F0B50021BB
:1014300000220024022500260223324F3F6807F0D5
:101440000C0121B1042905D0082937D105E02E4F20
:10145000076036E02D4F076033E02A4F3F1F3F689B
:10146000C7F38056274F3F1F3F6807F03F036EB119
:10147000264FB7FBF3F7DFF88CC0ACF1040CDCF8B7
:1014800000C0CCF3881C07FB0CF40CE01E4FB7FB2C
:10149000F3F7DFF870C0ACF1040CDCF800C0CCF35B
:1014A000881C07FB0CF4174F3F1F3F68C7F3014729
:1014B0007F1C7D00B4FBF5F7076002E0124F076068
:1014C00000BF00BF0F4F3F6807F0F0010909104F40
:1014D0007A5C0768D74047600A4F3F6807F4E051DD
:1014E000890A0B4F7A5C4768D7408760054F3F6891
:1014F00007F46041490B064F7A5C4768D740C760E4
:10150000F0BD0000083802400024F40040787D015E
:10151000250000201CB501210220FFF747FF012014
:101520008DF8040000208DF806008DF807000320D8
:101530008DF805000420009069460248FFF7C6F9BF
:101540001CBD00000004024021B1028842F04002AC
:10155000028004E002884FF6BF731A400280704791
:1015600000B587B001212020FFF720FF01210805E9
:10157000FFF74CFF052207212E48FFF7EFF9052260
:1015800008212C48FFF7EAF9052209212948FFF72D
:10159000E5F98020009002208DF805008DF8040008
:1015A00000208DF806008DF8070069462148FFF7F6
:1015B0008DF94FF48070009069461E48FFF786F958
:1015C0004FF40070009069461A48FFF77FF94020F9
:1015D000009001208DF8040069461648FFF776F95F
:1015E00040201449183108800020ADF808004FF45D
:1015F0008270ADF80A000020ADF80C000220ADF8B2
:101600000E000120ADF810004002ADF812000020DD
:10161000ADF81400ADF816000720ADF8180002A9C7
:10162000054800F019F801210348FFF78DFF07B0C6
:1016300000BD00000014024000500140024600209E
:1016400013890B400BB1012000E0002070470146D8
:10165000888970478181704710B50022028802F4A2
:1016600041520B884C8823438C882343CC882343E6
:101670000C8923434C8923438C892343CC892343FE
:101680001A430280838B4FF2FF74234083830B8ABB
:10169000038210BD704700000CB50020019000903F
:1016A0004148006840F480303F49086000BF3E4830
:1016B000006800F4003000900198401C01900098F0
:1016C00018B90198B0F5A04FF1D13748006800F47F
:1016D000003010B10120009001E00020009000983F
:1016E000012860D130484030006840F080502E49D9
:1016F000403108602D48006840F440402B490860A4
:101700002948083000682849083108600846006800
:1017100040F4004008600846006840F4A0500860AB
:101720002348091F0860081F006840F08070091FE7
:10173000086000BF1C48006800F000700028F9D065
:101740001A48006840F480301849086000BF174804
:10175000406800F480300028F9D01448006840F454
:1017600000301249086000BF1048406800F40030A3
:101770000028F9D040F205700E4908600A48083088
:10178000006820F003000849083108600846006836
:1017900040F00200086000BF03480830006800F015
:1017A0000C000828F8D10CBD003802400070004041
:1017B000195A4007003C024010B500F001F810BD76
:1017C00010B51B48006840B119480068401E184910
:1017D000086010B9012017490870002408E004EBE4
:1017E0004401154A02EB810001F0A6FB601CC4B263
:1017F000042CF4DB11480068401C104908600846BE
:1018000000686FF00041884202D100200B49086057
:1018100001F09EFA0A480078401CC0B208490870DE
:101820000A2803DB0020087001F08EFA10BD0000CA
:101830000000002004000020C8080020080000204C
:101840001C00002070B50020002202230024022189
:10185000274D2D6805F00C0020B1042806D008287B
:1018600034D107E0234D244E356033E0234D224E22
:1018700035602FE01E4D2D1F2D68C5F380541C4D83
:101880002D1F2D6805F03F0154B11C4DB5FBF1F53E
:10189000174E361F3668C6F3881605FB06F209E0B8
:1018A000144DB5FBF1F5124E361F3668C6F3881697
:1018B00005FB06F20E4D2D1F2D68C5F301456D1C6D
:1018C0006B00B2FBF3F50C4E356003E0094D0A4E98
:1018D000356000BF00BF064D2D68C5F30315084EE7
:1018E000705D054D2D68C540034E356070BD00002C
:1018F000083802400024F4003800002040787D01C0
:101900003C00002010B51548006840F470001349F1
:1019100008601348006840F0010011490860002089
:101920000F49083108600E4800680E4908400C490C
:1019300008600D48091D0860081F006820F4802019
:10194000091F0860002006490C310860FFF7A4FE5B
:101950004FF0006001498039086010BD88ED00E05B
:1019600000380240FFFFF6FE1030002410B50221BF
:10197000480700F073F858B10221480700F050F80A
:1019800000220221480700F07AF81B4800688047CF
:101990000421080700F062F858B10421080700F09C
:1019A0003FF800220421080700F069F81348006896
:1019B00080470821C80600F051F858B10821C80630
:1019C00000F02EF800220821C80600F058F80C4854
:1019D000006880471021880600F040F858B11021B7
:1019E000880600F01DF800221021880600F047F854
:1019F00004480068804710BD0C0000201000002043
:101A0000140000201800002021B1028842F080025A
:101A1000028004E002884FF67F731A40028070470C
:101A2000CA430282704721B1028842F0010202805B
:101A300004E002884FF6FE731A400280704731B10D
:101A4000B0F8442042F40042A0F8442005E0B0F889
:101A50004420C2F30E02A0F84420704730B502467D
:101A6000002000230024158A05EA0103958905EA70
:101A7000010413B10CB1012000E0002030BD1AB107
:101A800083890B43838102E083898B438381704781
:101A900070B5002400220023058C4FF6FE763540F9
:101AA0000584028C8388048B4FF68F752C40B51EFD
:101AB0002C400D882C43751E2A408D892A434D8861
:101AC0002A43104DA84202D00F4DA84213D14FF621
:101AD000F7752A40CD892A434FF6FB752A408D8839
:101AE0002A434FF6FF652B404FF6FF552B400D8ADA
:101AF0002B434D8A2B43838004838D684563028486
:101B000070BD000000000140000401400A460021B1
:101B1000018B4FF6F77319401143018370470000A2
:101B200070B5002400220023058C4FF6EF76354077
:101B30000584028C8388048B48F6FF752C404FF691
:101B4000FF452C400D884FF6FF7606EA05252C430D
:101B50004FF6DF752A408D8906EA05152A434D8820
:101B600006EA05152A43154DA84202D0144DA84295
:101B70001DD14FF67F752A40CD894FF6FF7606EAD4
:101B800005152A434FF6BF752A408D8806EA0515CC
:101B90002A434FF6FF352B404FF2FF752B400D8A3D
:101BA00006EA85052B434D8A06EA85052B4383808B
:101BB00004838D688563028470BD000000000140CD
:101BC000000401400A460021018B4FF2FF731940C7
:101BD0004FF6FF7303EA02231943018370470000A5
:101BE00070B5002400220023058C4FF6FF663540B7
:101BF0000584028C8388848B4FF68F752C404FF6BA
:101C0000FC752C400D882C434FF6FF552A408D89DA
:101C10004FF6FF7606EA05252A434D8806EA052594
:101C20002A43154DA84202D0144DA8421DD14FF2AF
:101C3000FF752A40CD894FF6FF7606EA05252A432F
:101C40004FF6FF352A408D8806EA05252A434EF6D1
:101C5000FF752B404DF6FF752B400D8A06EA0515E2
:101C60002B434D8A06EA05152B43838084838D68B8
:101C7000C563028470BD0000000001400004014003
:101C80000A460021818B4FF6F77319401143818377
:101C90007047000070B5002200230024058C4EF62A
:101CA000FF7635400584038C8488828B48F6FF7567
:101CB0002A404FF6FF452A400D884FF6FF7606EA88
:101CC00005252A434DF6FF752B408D8906EA05351B
:101CD0002B434D8806EA05352B430A4DA84202D016
:101CE000094DA84208D14BF6FF752C400D8A4FF6DE
:101CF000FF7606EA85152C43848082838D6805640F
:101D0000038470BD00000140000401400A46002128
:101D1000818B4FF2FF7319404FF6FF7303EA0223E2
:101D2000194381837047000000220288184B9842B3
:101D30000ED0184B98420BD0B0F1804F08D0164B04
:101D4000984205D0154B984202D0154B984204D1C9
:101D50004FF68F731A404B881A43124B984207D0A4
:101D6000114B984204D04FF6FF431A400B891A4397
:101D700002804B68C3620B880385054B984202D0F2
:101D8000044B984201D18B7A0386012383827047EA
:101D90000000014000040140000400400008004031
:101DA000000C0040001000400014004010B5024834
:101DB00000F000F910BD0000A000002001F4007246
:101DC000B2F5007F00D100BFCA430280704721B145
:101DD000828942F40052828104E082894DF6FF73C9
:101DE0001A408281704770B5024600240023002506
:101DF000002040F66A16B14200D100BFC1F342157F
:101E000001F01F03012606FA03F3012D02D1968982
:101E1000334006E0022D02D1168A334001E0968A53
:101E200033400C12012606FA04F41688344013B12C
:101E30000CB1012000E0002070BDF0B50346002485
:101E400000260025002040F66A17B94200D100BFE5
:101E50001846C1F3421401F01F06012707FA06F5E0
:101E6000012C01D10C3004E0022C01D1103000E033
:101E700014301AB107682F43076002E00768AF43C8
:101E80000760F0BD2DE9FF4705460E460024A14638
:101E900000BFA046B08900B100BF2C8A24F4405492
:101EA000F08804432C82AC8941F20C608443B088F2
:101EB00031890843718908430443AC81AC8A24F416
:101EC0004074B0890443AC826846FFF7AFFA2048FB
:101ED000854202D01F48854202D1DDF80C9001E016
:101EE000DDF80890A88900F4004040B109EBC90072
:101EF00000EB091031684900B0FBF1F707E009EB8E
:101F0000C90000EB091031688900B0FBF1F76420CB
:101F1000B7FBF0F004012009642101FB1078A889C7
:101F200000F4004040B1322000EBC800B0FBF1F0FB
:101F300000F00700044308E0322000EB08106421A1
:101F4000B0FBF1F000F00F0004432C81BDE8FF87E7
:101F5000001001400014014001468888C0F30800C9
:101F60007047C1F308028280704770B504460D4681
:101F7000012000F00AF9668B002000F006F90EB986
:101F8000002070BD218BA068405C2870012000F00B
:101F9000FCF8208B401C80B22083E189884201DB61
:101FA00000202083608B401E6083002000F0EDF84D
:101FB0000120E6E770B5044640F225512068FFF79E
:101FC00012FFE0B12068FFF7C7FFC5B2E18AA06841
:101FD0004554E08A401C80B2E082E189884201DBFE
:101FE0000020E082608BE189884202DA608B401C2D
:101FF0006083606A10B12846616A884700BF40F27A
:1020000027712068FFF7EFFE08B3A08A60B90022AD
:1020100040F227712068FFF710FF012240F226618D
:102020002068FFF70AFF37E0638A6268D15C2068A6
:10203000FFF797FF608A401C80B26082A1898842C6
:1020400001DB00206082A08A401EA08224E040F2D2
:1020500026612068FFF7C7FEF0B1A08A50B90022C0
:1020600040F226612068FFF7E8FE206AA0B1206AEE
:10207000804711E0638A6268D15C2068FFF771FFD6
:10208000608A401C80B26082A189884201DB002006
:102090006082A08A401EA08270BDF8B504460E463C
:1020A0001746002529E00EE0012000F06EF8A08A16
:1020B0000090002000F069F8A089BDF80010884267
:1020C00000DD01E000BFEFE700BF705D228A6168BC
:1020D0008854012000F059F8208A401C80B22082E8
:1020E000A189884201DB00202082A08A401CA082B6
:1020F000002000F04AF8681C85B2BD42D3DB012203
:1021000040F227712068FFF798FEF8BD0A480B4996
:1021100008600B4848600B4888604FF480608881F5
:10212000C881002008824882C88208834883888248
:10213000C86108624862704700100140A00000209A
:10214000C8000020C804002000BFFEE70FB4054B04
:1021500010B503A9044A029800F01EF810BC5DF8FF
:1021600014FB0000AD3000084C00002002E008C85D
:10217000121F08C1002AFAD170477047002001E001
:1021800001C1121F002AFBD1704780F310887047ED
:1021900080F31088704700002DE9FF4F8DB00F4687
:1021A0000546002606E025280BD0DDE90F129047F2
:1021B0006D1C761C28780028F5D111B03046BDE89A
:1021C000F08F0024A246A1460122EC4900E004431E
:1021D00015F8013F203B02FA03F00842F7D12878B6
:1021E0002A2810D06FF02F022878A0F13001092999
:1021F00014D80AEB8A0102EB410144F0020400EB1F
:10220000010A6D1CF0E701CF5FEA000A03D544F430
:102210000054CAF1000A44F002046D1C28782E28EC
:1022200017D115F8010F44F004042A280ED06FF0DE
:102230002F022878A0F1300109290AD809EB890179
:1022400002EB410100EB01096D1CF2E757F8049B1A
:102250006D1C28786C280FD006DC4C2817D0682815
:102260000DD06A2814D104E0742810D07A280FD138
:102270000DE044F400140AE044F4801401E044F456
:1022800040146978814202D104F580146D1C6D1CE4
:102290002A786E2A1FD00CDC632A31D004DC002A95
:1022A0008BD0582A11D1A3E0642A68D0692A0CD1B6
:1022B00065E0732A2ED004DC6F2A73D0702A04D113
:1022C0009BE0752A6FD0782A6ED01046DDE90F1298
:1022D0009047761C50E1C4F30250022806D0032830
:1022E00009D0042801CF09D0066045E101CFF117DC
:1022F000C0E9006140E101CF06803DE106703BE1AD
:1023000017F8040B8DF8000000208DF80100EB4653
:10231000012003E057F804BB4FF0FF3061074FF096
:10232000000102D40DE008F10101884649450FDAA9
:102330008045F8DB1BF808100029F4D108E008F10B
:10234000010188468142FADB1BF808100029F6D10A
:10235000DDE90F23AAEB08008146214600F036F99B
:10236000304400EB080604E0DDE90F121BF8010B16
:102370009047B8F10108F7D221464846F7E00A2114
:10238000C4F302534FF0000B0891022B04D001CF8D
:10239000C117032B09D00AE0FF1D27F00707F7E854
:1023A000020108E032E01FE020E000B2C117042B78
:1023B00001D140B2C117031E71F1000307DA4FF0DB
:1023C000000CD0EB0C006CEB01012D2302E0230587
:1023D00004D52B238DF82430012303E0E30701D03B
:1023E0002023F7E7984658E00A2110E010210EE07C
:1023F00010204FF0000B08900CE010214FF0000B64
:1024000044F004044FF00809089103E008214FF05C
:10241000000B0891C4F30253022B04D001CF00211A
:10242000032B06D006E0FF1D27F00707F7E802019F
:1024300003E080B2042B00D1C0B24FF000082307A4
:102440002BD5702A07D0DDF820C08CF0100C5CEA88
:102450000B0C05D00EE040238DF82430012308E05A
:1024600050EA010306D030238DF824308DF8252062
:1024700002239846DDF820C08CF0080C5CEA0B0CB7
:102480000BD150EA010301D1630706D530238DF843
:1024900024304FF00108A9F10109582A04D038A2CC
:1024A0000B9208AA0A920BE03AA2F9E75B46089A57
:1024B000FDF798FE0B9B9B5C0A9A521E0A921370C2
:1024C00050EA0102F2D10A98ADEB000000F1200BB6
:1024D000600702D524F4803401E04FF00109D945AA
:1024E00002DDA9EB0B0000E0002000EB0B014144F2
:1024F0000890AAEB010AE00306D4DDE90F23214688
:10250000504600F063F806444FF0000908E009A9BE
:1025100011F80900DDE90F12904709F10109761C55
:10252000C145F4DBE0030CD5DDE90F23214650461D
:1025300000F04CF8064404E0DDE90F12302090472B
:10254000761C0899481E08900029F5DC08E00A98D6
:102550000A990078491C0A91DDE90F129047761C10
:10256000BBF10001ABF1010BF1DC21465046DDE986
:102570000F2300F019F806446D1C1BE60928010022
:1025800030313233343536373839616263646566E9
:1025900000000000303132333435363738394142AB
:1025A00043444546000000002DE9F0410446002563
:1025B0001E461746880404D405E039462020B0475B
:1025C0006D1C641EF9D52846BDE8F0812DE9F04167
:1025D000044600251E469046C80301D5302700E07A
:1025E0002027880404D505E041463846B0476D1CD5
:1025F000641EF9D52846BDE8F08100000146042993
:1026000001DB0020704701EB4100084A02EB80002B
:102610004078012808D1002001EB4102034B03EB75
:10262000820250700120EDE70020EBE7C80800208F
:102630007CB505460C46284600F07AF9064601218D
:10264000FEF7B4FE009401208DF8040002208DF8FE
:10265000050000208DF806008DF807006946284621
:10266000FEF734F97CBD00002DE9FC4706460D4617
:1026700014469946304600F05BF907460121FEF703
:1026800095FE1F4884420BD01E48844208D01E4845
:10269000844205D01D48844202D01D48844207D19F
:1026A000204600F087F907460121FEF7AFFE06E05D
:1026B000204600F07FF907460121FEF797FE0095BE
:1026C00002208DF8040003208DF8050000208DF80D
:1026D000060001208DF8070069463046FEF7F6F83F
:1026E000204600F07DF80746284600F0D7F88046DF
:1026F0003A4641463046FEF731F9BDE8FC87000016
:10270000000001400004014000400140004401403D
:102710000048014070B50546304800EB05142068BC
:10272000804700283ED02079052802DA0520207154
:1027300052E020790A2803DA2079401C20714BE00E
:10274000A07A38B90120A07205EB4501491CC8B236
:1027500000F0EAFA208900283EDDE08821898842DD
:102760000DDAE088401C80B2E0802189884233D1B4
:1027700005EB4501C91CC8B200F0D6FA2CE0E07A9E
:10278000002829DD207B401CC0B22073E17A8842FA
:1027900022DB0020207305EB4501491CC8B200F084
:1027A000C3FA19E02079052802DD0520207110E028
:1027B000207918B12079401E20710AE0A07A012802
:1027C00007D10020A07205EB4501891CC8B200F0BA
:1027D000ABFA0020E080207370BD00007000002084
:1027E00001460020224A914201D101203FE0214AC6
:1027F000914201D103203AE01F4A914201D10320C6
:1028000035E01E4A914201D1032030E01C4A91423A
:1028100001D103202BE0B1F1804F01D1012026E04E
:10282000184A914201D1022021E0174A914201D178
:1028300002201CE0154A914201D1022017E00D4A06
:10284000914201D1032012E00B4A914201D10320B1
:102850000DE00F4A914201D1092008E00D4A914252
:1028600001D1092003E00C4A914200D109207047B0
:1028700000000140000401400040014000440140CC
:10288000004801400004004000080040000C0040E7
:1028900000180040001C00400020004001460020BD
:1028A000012900D142E0022901D101203EE00429A2
:1028B00001D102203AE0082901D1032036E0102995
:1028C00001D1042032E0202901D105202EE0402949
:1028D00001D106202AE0802901D1072026E0B1F5A8
:1028E000807F01D1082021E0B1F5007F01D10920CE
:1028F0001CE0B1F5806F01D10A2017E0B1F5006F3F
:1029000001D10B2012E0B1F5805F01D10C200DE068
:10291000B1F5005F01D10D2008E0B1F5804F01D184
:102920000E2003E0B1F5004F00D10F2070470000EA
:1029300001460020164A914201D1012026E0154AA5
:10294000914201D1022021E0134A914201D1042099
:102950001CE0124A914201D1082017E0104A91422E
:1029600001D1102012E00F4A914201D120200DE048
:102970000D4A914201D1402008E00C4A914201D118
:10298000802003E00A4A914200D188157047000078
:10299000000002400004024000080240000C024017
:1029A000001002400014024000180240001C0240C7
:1029B0000020024001460020244A914201D101201A
:1029C00042E0234A914201D102203DE0214A914256
:1029D00002D14FF4803037E01F4A914202D14FF4C8
:1029E000003031E01D4A914202D14FF480202BE0AB
:1029F000B1F1804F01D1012026E0194A914201D165
:102A0000022021E0174A914201D104201CE0164A1D
:102A1000914201D1082017E0144A914201D11020BF
:102A200012E0134A914201D120200DE0114A914257
:102A300001D1402008E0104A914201D1802003E0FA
:102A40000E4A914200D188157047000000000140F5
:102A500000040140004001400044014000480140A2
:102A60000004004000080040000C0040001000403E
:102A70000014004000180040001C004000200040EE
:102A8000704710B500F00EF800F038F9FEF778F94D
:102A900000F04EF800F0E2F8FEF762FD00F0A0F85A
:102AA00010BD000010B5FDF7BFFFFDF78CFF40F62D
:102AB000147003490860084600680249086010BDA8
:102AC00020000020001000647FB501210846FEF7B9
:102AD0008DFC1548006846081448B6FBF0F085B236
:102AE0004FF0FF340294ADF804500020ADF80C0014
:102AF000ADF8060001A94FF08040FFF715F901215C
:102B00008807FEF790FF1C208DF8000004208DF848
:102B1000010000208DF8020001208DF803006846B6
:102B2000FEF764F97FBD00003800002040420F002E
:102B300010B500F025F800F001F810BD1CB501211A
:102B40000520FEF733FC00208DF804008DF8060008
:102B50008DF8070002208DF80500012000906946DD
:102B60000548FDF7B3FE4FF4005000906946034856
:102B7000FDF7ACFE1CBD0000000002400008024052
:102B80000021134A9172D1721173002018E0642160
:102B9000104A02EB0012118102210E4A02EB0012D0
:102BA000117100210B4A02EB00129172094A02EBEB
:102BB0000012D172074A02EB00121173411CC8B215
:102BC0000228E4DB0449034A11600449116170479B
:102BD0009000002070000020510D0008690D0008D1
:102BE0001CB501210846FEF7E1FB052211461948F4
:102BF000FDF7B4FE052206211648FDF7AFFE0220C0
:102C00008DF8040001208DF8050000208DF80600E5
:102C10008DF807006020009069460E48FDF756FECB
:102C200001210803FEF7F2FB4FF44B7000F092F81D
:102C30000948808B4FF2FF710840074988830720BD
:102C4000088200210448FEF77FFC01210248FEF7BC
:102C50007BFC1CBD000002400030014070B5002428
:102C600016E0002004EB4401204A02EB8101486099
:102C700004EB440102EB8101886004EB440102EBA8
:102C80008101487004EB440102F82100601CC4B2C9
:102C9000042CE6DBFEF7D6FD154800684FF47A7287
:102CA000B0FBF2F1481EB0F1807F00D31BE0481E5C
:102CB0004FF0E022506150170F22002807DA130767
:102CC0001E0E0C4B00F00F052D1F5E5503E0130781
:102CD0001D0E094B1D5400BF00204FF0E0229061F3
:102CE0000720106100BFFFF7EFFE70BDC80800208D
:102CF0003800002018ED00E000E400E010B5FFF718
:102D000005FAFDF7CFFFFEF705FCFDF799FC10BDB6
:102D100010B5002404E02046FFF7FCFC601CC4B2A0
:102D2000022CF8DB10BD00000649C97A054A505450
:102D30001146C97A491CC9B2D1720A2901DB0021A6
:102D4000D17270479000002010B5FFF7E1FF10BD71
:102D5000704700000949098801F441510143074ABD
:102D60001180114609884FF6BF721140034A118045
:102D70001146098841F04001118070470030014040
:102D80002DE9FF4F89B0834614461D46DDE9166ADA
:102D9000BAF1000F0FD100212046FEF744FE58463D
:102DA0000A99FFF745FC002258460A99FDF706FEEE
:102DB0000DB0BDE8F08F42F2107082450DD10021B8
:102DC0002046FEF730FE58460A99FFF731FC0122F3
:102DD00058460A99FDF7F2FDEAE72B462246584687
:102DE0000A99FFF741FC4E4884420BD04D4884427B
:102DF00008D04D48844205D04C48844202D04C480B
:102E0000844203D14B48D0F8008003E04948006871
:102E10004FEA5008642E0AD242F20F7942F2107043
:102E2000B8FBF0F0B0FBF6F0401E87B213E040F6BE
:102E3000B830864209D24FF063096420B8FBF0F045
:102E4000B0FBF6F0401E87B205E04FF00009B8FB7A
:102E5000F6F0401E87B20797ADF818900020ADF845
:102E60002000ADF81A008DF8220006A92046FEF7D2
:102E70005BFF6020ADF804000120ADF806000AFBFE
:102E800007F042F21071B0FBF1F003900020ADF8B2
:102E90001000ADF80800ADF81200ADF81400ADF860
:102EA0001600012D08D101A92046FEF7F1FD0821E9
:102EB0002046FEF72BFE1FE0022D08D101A9204677
:102EC000FEF72EFE08212046FEF77CFE14E0032DBF
:102ED00008D101A92046FEF783FE08212046FEF70F
:102EE000CFFE09E0042D07D101A92046FEF7D2FE4E
:102EF00008212046FEF70AFF01212046FEF784FD47
:102F000001212046FEF78FFD0548844202D0054886
:102F1000844203D101212046FEF791FD00BF47E71F
:102F20000000014000040140004001400044014015
:102F30000048014038000020416851B14168491EF5
:102F4000416031B9012141700178012901D18168C5
:102F50004160704770B504460D46042C06DB124AEA
:102F600012A11AA0FFF7F2F800BFFEE70120FFF759
:102F70000FF904EB44001D4901EB8000456004EBB0
:102F8000440001EB80008560002004EB4401174AF7
:102F900002EB81014870012004EB440102F821009A
:102FA0000020FFF7F5F870BD133100082E2E5C2EBF
:102FB0002E5C557365725C6273705C7372635C62E5
:102FC00073705F74696D65722E6300004572726F75
:102FD000723A2066696C652025732C2066756E63D5
:102FE00074696F6E20257328290D0A00C808002017
:102FF00010B500BF02210B48FEF720FB0028F9D0D6
:1030000000210848FEF726FB00BF01210548FEF716
:1030100015FB0028F9D00348FEF719FBC4B220467F
:1030200010BD00000030014010B5FDF769F9FDF753
:103030003DF905490878FDF7C3FAFDF777FA08214D
:103040000248FDF7B9FC10BD24000020001002402A
:1030500070B505460E462846FDF7D6FA04460CB96B
:10306000002070BD31462046FEF77FFFF9E72DE9CD
:10307000F04105460E4617462846FDF7C5FA0446B8
:103080000CB9BDE8F081E06908B1E06980473A46D3
:1030900031462046FFF701F800BFF2E713B50446BA
:1030A000012201A92046FFF7E2FF1CBD70B50446CE
:1030B0000D46E1B20020FFF7F1FF204670BD000091
:1030C0001CB5FFF7DEFC0BA0FFF740F8FEF73CF85D
:1030D000FDF7CAFE41F2883041000123074ACDE9DD
:1030E000001091150648FFF74BFEFDF7B9FA00BF37
:1030F000FEE700001B5B324A0000000000000140B8
:10310000000002406273705F537461727454696DA1
:103110006572006273705F53746172744175746F8D
:1031200054696D6572006273705F53746F70546997
:103130006D6572005431000800000020500000004E
:103140006C210008A431000850000020B80C0000D9
:103150007C210008000000000000000000000000CA
:10316000000000000000000000000000000000005F
:103170000000000000000000000000000001020349
:103180000401020304060708090000000095BA0ABA
:103190000000000000000000010203040607080907
:0431A000000000002B
:04000005080001AD41
:00000001FF
