:020000040800F2
:1000000038070020C10100085F1D00089D1000088E
:10001000E51C000849030008892F000800000000C3
:100020000000000000000000000000009126000811
:100030007504000800000000091E0008492A000895
:10004000DB010008DB010008DB010008DB01000820
:10005000DB010008DB01000805070008DB010008E0
:10006000DB010008DB010008DB010008DB01000800
:10007000DB010008DB010008DB010008DB010008F0
:10008000DB010008DB010008DB010008DB010008E0
:10009000DB010008DB010008DB010008DB010008D0
:1000A000DB010008DB010008DB010008DB010008C0
:1000B000DB010008DB010008DB010008DB010008B0
:1000C000DB010008DB010008DB010008DB010008A0
:1000D000DB010008DB010008DB010008DB01000890
:1000E00095070008DB010008DB010008DB010008C0
:1000F000DB010008DB010008DB010008DB01000870
:10010000DB010008DB010008DB010008DB0100085F
:10011000DB010008DB010008A92A0008DB01000858
:10012000DB010008DB010008DB010008DB0100083F
:10013000DB010008DB010008DB010008DB0100082F
:10014000DB010008DB010008DB010008DB0100081F
:10015000DB010008DB010008DB010008DB0100080F
:10016000DB010008DB010008DB010008DB010008FF
:10017000DB010008DB010008DB010008DB010008EF
:10018000DB010008DB010008DB010008DB010008DF
:10019000DB010008DB010008DB010008DB010008CF
:1001A000DB010008DB010008DB010008DFF80CD0F0
:1001B00000F06EF8004800470536000838070020B8
:1001C0000648804706480047FEE7FEE7FEE7FEE7F1
:1001D000FEE7FEE7FEE7FEE7FEE7FEE74D2A000842
:1001E000AD01000840EA01039B0703D009E008C9FC
:1001F000121F08C0042AFAD203E011F8013B00F8EC
:10020000013B521EF9D27047D2B201E000F8012B37
:10021000491EFBD270470022F6E710B513460A4686
:1002200004461946FFF7F0FF204610BD2DE9F05FA8
:100230000546002092469B46884606468146402455
:100240001BE0284641464746224600F042F8534606
:100250005A46C01A914110D311461846224600F062
:1002600029F82D1A67EB01084F462246012000218C
:1002700000F020F817EB00094E41201EA4F1010404
:10028000DFDC484631462A464346BDE8F09F000081
:10029000064C074D06E0E06840F0010394E80700D3
:1002A00098471034AC42F6D3FFF784FFE8480008C3
:1002B00008490008202A04DB203A00FA02F1002055
:1002C00070479140C2F1200320FA03F31943904094
:1002D0007047202A04DB203A21FA02F000217047FF
:1002E00021FA02F3D040C2F120029140084319469E
:1002F000704770B58C1810F8015B15F0070301D139
:1003000010F8013B2A1106D110F8012B03E010F878
:10031000016B01F8016B5B1EF9D12B0705D400239B
:10032000521E0DD401F8013BFAE710F8013BCB1A3D
:10033000921C03E013F8015B01F8015B521EF9D532
:10034000A142D8D3002070BDFEE70000054A4FF45B
:100350000041012802D0104600F085BB104600F095
:1003600080BB000000040240007AC107034802D0AD
:10037000012141707047002141707047B802002090
:1003800010B50121CC05204601F04EFD2046BDE808
:100390001040002101F048BD01460020024A526889
:1003A0000A4200D00120704700B0024030B500245E
:1003B0002A4B19682A4A11401960196802681143CA
:1003C0001960596B21F007015963596B4268114359
:1003D00059634168002928D001292DD0022930D045
:1003E000032933D0C1680A01016909024469240361
:1003F0008568214315430D43996B0D439D638169C6
:10040000D963196C6FF30D011964196CC26911433A
:100410001964818C09045A6C02F040425A645A6C87
:10042000006A02430A435A6430BDC1680A02018A65
:100430000904047D2406DBE7C1680A02018A090475
:10044000D6E7C1684A010169C902D1E7C1684A011A
:10045000016989024469E403CAE7000000B0024070
:10046000FCE0FCFF0248016841F0010101607047B7
:1004700000B002407047000070B586B00121084608
:1004800001F0C4FC0121102001F0F8FC1E4E0722EF
:100490000A21304600F0CEFA07220921304600F04A
:1004A000C9FA00248DF8164001208DF817000225A6
:1004B0008DF81450410204918DF8155004A930466E
:1004C00000F07AFA8DF814506802049004A93046BE
:1004D00000F072FA4FF4E1300090ADF80440ADF84E
:1004E0000640ADF80840ADF80C400C20ADF80A000D
:1004F000064C6946204602F0E5FC0121204602F048
:10050000CDFC06B070BD00000000024000100140AC
:1005100001B502E00098401E009000980028F9D133
:1005200008BD01B502E00098401E00900098002828
:10053000F9D108BD10B50446207AC00704D04FF6A3
:10054000E07001F05DFA03E048F21F0001F058FA94
:10055000E0886188A288401A83B22088121A92B279
:1005600000F0E4FF2088A188084441086088E28800
:10057000104440081839BDE8104089B201A200F0CB
:1005800035BF0000CBAEB1C30000000010B504467B
:10059000207AC00704D048F2E03001F031FA03E0DD
:1005A0004FF47C4001F02CFAE0886188A288401A60
:1005B00083B22088121A92B200F0B8FF2088A18876
:1005C000084441086088E288104440081839BDE8B2
:1005D000104089B201A200F009BF0000D6F7D6E1B1
:1005E0000000000010B50446A07A002804D048F2AC
:1005F000E03001F005FA03E04FF47C4001F000FA2E
:10060000E0886188A288401A83B22088121A92B2C8
:1006100000F08CFF2088A188084441086088E288A7
:10062000104440081839BDE8104089B201A200F01A
:10063000DDBE0000CFC2BDB50000000010B504460D
:10064000A07A002804D048F2E03001F0D9F903E0A4
:100650004FF47C4001F0D4F9E0886188A288401A08
:1006600083B22088121A92B200F060FF2088A1881D
:10067000084441086088E288104440081839BDE801
:10068000104089B201A200F0B1BE0000C9CFC9FD7F
:100690000000000070B50446E0886188A288401A16
:1006A00083B22088121A92B200F040FF2088A188FD
:1006B000084445086088E18808444608207AC00755
:1006C0000BD048F2E03001F09BF9183DA9B2B0B26E
:1006D000BDE8704007A200F089BE4FF47C4001F0F5
:1006E0008FF9183DA9B2B0B2BDE8704003A200F086
:1006F0007DBE0000CDA3D6B900000000BFAACABCD1
:100700000000000010B5012000F05AF8002823D0A6
:100710000121124800F09EF904464FF400511048A0
:1007200000F098F920180BD001280DD002280FD026
:100730000CA002F02BFCBDE81040012000F03AB8FC
:100740000BA002F023FCF6E70CA002F01FFCF2E77E
:100750000DA002F01BFCEEE710BD000000000240FF
:1007600000080240CEB4D6AAB4EDCEF30A000000D1
:10077000BFAAC2B7D7B4CCAC0A000000BBF0BBA87C
:10078000D7B4CCAC0A000000B6CCC2B7D7B4CCAC5E
:100790000A00000010B54FF40054204600F010F895
:1007A000002806D000F05EFB2046BDE8104000F0B7
:1007B00001B810BD0149086070470000143C0140B9
:1007C00001460020024A12680A4200D00120704708
:1007D000143C014030B51B4A83790168002B2AD0B4
:1007E00013688B431360111D0B680468A3430B60EF
:1007F000017911440B68046823430B60114C0834E1
:100800002168036899432160231D19680568A9437D
:1008100019604179102905D011440A680068024323
:100820000A6030BD216802681143216019680068C0
:100830000143196030BD0079104402688A430260A8
:1008400030BD0000003C014000224FF02043102842
:100850000AD0B0F5807F09D0B0F5805F09D0D3F819
:100860005801814309D107E0586EFAE7D3F88400B4
:10087000F7E7D3F8A400F4E7012210467047000020
:10088000D0E9001211438268C068521E520142EA48
:10089000402001430148016070470000500100A062
:1008A00070B50468A100A1F1C041D1F84011CE0B90
:1008B000F603D0E901121143D0E903231A4311438F
:1008C0004269C36911438269056A11431943426A47
:1008D0002943114331434FF02046002C3CD0D6F839
:1008E00040416FF30E042B4322431343C6F84031BB
:1008F00002689200A2F1C042C2F84011016871B3CF
:100900008900A1F1C041D1F8481101F07043816A1A
:100910000A684C68521E641E42EA04148A68521E19
:1009200044EA02240A8A521E44EA02421A43D6F8D2
:10093000483103F07043CC68898A641E2403491E41
:1009400044EA01511943C6F8481100688000A0F13B
:10095000C040C0F8482170BDC6F84011CEE7FFE79F
:10096000D6F8481101F07041806A02684368521E4F
:100970005B1E42EA03138268521E43EA0223C268E6
:10098000521E43EA0233028A521E43EA0243828A1B
:10099000007E521E43EA0252401E42EA00600843B3
:1009A000C6F8480170BD000002490A6842EA4000EA
:1009B00008607047540100A02DE9F0410022012792
:1009C0004FF0030C07FA02F50B682B40AB422CD119
:1009D000066853000CFA03F4A64306600E79D0F8BB
:1009E00000809E4046EA080606600E79012E01D07E
:1009F000022E12D18668A64386604E79D0F8088010
:100A00009E4046EA080686604668AE4346604568F2
:100A10008E799640B6B235434560C568A543C5603A
:100A2000CC799C40C3681C43C460521C102AC9D3B3
:100A3000BDE8F08110B54B07DB0E9A40C90800EB0A
:100A40008100016A0F249C40A1430162016A1143A5
:100A5000016210BD0246002012690A4200D0012046
:100A60007047418370470183704700007CB50020C8
:100A70000090019080258DF8005048208DF80100ED
:100A800006226946BA2000F049F8002801DA002061
:100A90007CBD9DF802009DF8031000EB012086B29A
:100AA0009DF804009DF8051000EB012084B28DF83C
:100AB00000504D208DF8010003226946BA2000F055
:100AC0002DF8002801DA00207CBD9DF8020000F01E
:100AD00003032246314602A002F058FA01207CBDF1
:100AE0003C3C2D4754502D494E464F2D3E3E2058FC
:100AF0005F4D4158203D2025642C20595F4D4158C1
:100B0000203D2025642C2054524947474552203D22
:100B1000203078253032780A00000000F0B587B028
:100B20000E4617464FF0FF3500240021ADF80610A1
:100B30008DF804000221ADF8081003960121ADF8EC
:100B400012108DF81000B81EADF81400B01C0690FD
:100B500007E0022101A800F08AFB0546022D02D021
:100B6000641C052CF5DB052C08DB707831782B46EE
:100B700040EA0121BA1E034802F008FA07B02846ED
:100B8000F0BD00004448000838B50D4800680090EA
:100B90000024651E0DE003226946BA20FFF7BEFF60
:100BA00045B2002D01DD284638BD214605A002F0E2
:100BB000EDF92046641CE4B20528ECD3284638BD84
:100BC000304800083C3C2D4754502D4552524F525E
:100BD0002D3E3E2047545020693263207465737463
:100BE000206661696C65642074696D652025642EDA
:100BF0000A000000FEB50E4617464FF0FF350024F0
:100C00000021ADF802108DF80000ADF804700296D6
:100C100007E00121684600F02AFB0546012D02D0BD
:100C2000641C052CF5DB052C08DB707831782B462D
:100C300040EA0121BA1E024802F0A8F92846FEBD8A
:100C4000944800082DE9F0410024B82500F006FB87
:100C5000FFF79AFF0646002E05DA21A002F096F96A
:100C60003046BDE8F08100F057F82848007888B198
:100C7000DFF8988008F1C308BA27254EF021B01C90
:100C8000FFF7C9FA3A464146B01CFFF7ABFA02211A
:100C9000AA1C09E0DFF8748008F10908BA27ECE71C
:100CA000705C2044C4B2491C9142F9DBE143491C09
:100CB000701981700121C17000242A1D1449BA20C5
:100CC000FFF798FF002802DC641C052CF5DB1148B7
:100CD000FFF727FC00F02EFAFFF7C8FE0020C0E760
:100CE0003C3C2D4754502D4552524F522D3E3E20F4
:100CF00049324320636F6D6D756E69636174696F0E
:100D00006E204552524F52210A0000003000002050
:100D1000AD010020FFFF0F0030B585B02C48016900
:100D2000C068CDE90301082203A9BA20FFF7F6FE47
:100D30000446200005D527A002F028F9204605B07A
:100D400030BD9DF811002E4DA0B19DF812109DF8F8
:100D50001320CDE9012100909DF810309DF80F205F
:100D60009DF80E1027A002F011F99DF80E00392809
:100D70001ED02BE09DF812009DF81310CDE9001055
:100D80009DF810309DF80F209DF80E1029A002F05C
:100D9000FDF89DF80E00392818D19DF80F00312874
:100DA00014D19DF81000312810D1012028700DE0D9
:100DB0009DF80F00312809D19DF81000352805D184
:100DC0009DF81100372801D1002028702046B6E791
:100DD000304800083C3C2D4754502D4552524F524C
:100DE0002D3E3E2047545020726561642076657226
:100DF00073696F6E206661696C65640A00000000AB
:100E0000300000203C3C2D4754502D494E464F2D7C
:100E10003E3E204943322056657273696F6E3A2018
:100E200025632563256325635F25303278253032BD
:100E3000780A00003C3C2D4754502D494E464F2D1A
:100E40003E3E204943312056657273696F6E3A20E9
:100E50002563256325635F25303278253032780A93
:100E60000000000000F04AB870B506460C46154672
:100E7000A9B2A0B201F058FF034820F816400A308A
:100E800020F8165070BD0000A002002070B5044686
:100E9000074EA6F10A0536F8141035F8140001F0D3
:100EA000D1FF4FF0FF3025F8140026F8140070BD74
:100EB000AA02002070B505460C460F4800780028AD
:100EC00001D101F0F9FA220AE1B2A13AC2EB021013
:100ED00000EB421001EB4001A13901EBC10081019F
:100EE000C81701EB5070C110482201F5AA0128462D
:100EF00001F0BCFA002070BD1C0000202DE9F04F6D
:100F000097B04CA00068169028210DF12C090CA870
:100F1000FFF781F9484C60680B904FF0BA0B002640
:100F20000C220BA95846FFF7F9FD0146002905DA06
:100F300042A002F02BF817B0BDE8F08F9DF82E000C
:100F40000028F8D0010669D500F00F05052D65D8F9
:100F5000012D14D9242101AF381DFFF75CF9A068D9
:100F60000190681E022101EBC002044601A9584607
:100F7000FFF7D4FDE200B91C0EA8FFF733F9DFF844
:100F8000ECA00AF10408BAF80200A84215D818E04B
:100F900000246F1E0EE009EBC400C07800F00F01C2
:100FA00018F80600884207D0BC4201DBFFF76EFF4D
:100FB000641CE4B2AC42EED3761CBAF8020086425E
:100FC000E6DBDDB1002416E009EBC400C17801F0D6
:100FD0000F0608F804600179427941EA022182791A
:100FE000C37942EA0322037A407A43EA0023304677
:100FF000FFF73AFF641CAC42E6DB0DE0BAF80200F2
:1010000050B1002404E018F80400FFF73FFF641C0F
:10101000BAF802008442F6DBAAF80250032216A9AD
:101020005846FFF7E7FD002885DA11A001F0AEFF72
:1010300081E70000814E0000304800083C3C2D470D
:1010400054502D4552524F522D3E3E20493243209E
:101050007472616E73666572206572726F722E2093
:101060006572726E6F3A25640A200A003000002013
:101070003C3C2D4754502D494E464F2D3E3E204975
:10108000324320777269746520656E645F636D64B6
:10109000206572726F72210A00000000FEE70000F6
:1010A0002DE9FC410121880500F0DAFE01218820AC
:1010B00000F0ACFE0121880300F0E0FE102000905B
:1010C00001258DF8045002248DF805408DF8065056
:1010D00000268DF80760154F69463846FFF76CFC0F
:1010E0002021009169463846FFF766FCA002009077
:1010F0008DF804508DF805408DF806608DF8074096
:101100000B4F69463846FFF757FC200300908DF8D7
:1011100004508DF805408DF806608DF8074069464B
:101120003846FFF749FCBDE8FC810000001C024086
:10113000000C024030B585B04FF4005500950024F6
:101140008DF8044002208DF805008DF807406946AF
:101150001248FFF731FC0D21032001F09BFA0395A3
:101160008DF8104008208DF8110001248DF81240F0
:1011700003A8FFF72FFB4FF4C06000F025FE2820E6
:101180008DF808008DF809408DF80A408DF80B4065
:1011900002A800F0E5FD05B030BD0000000C0240E3
:1011A00070B506460D46144602F0DCF946F0010023
:1011B00002F0ACF902F006FA88B102F0EFF9012072
:1011C00070BD012C03D102F067F902F0E7F902F0DB
:1011D0007BF905F8010B641EA4B202F03BF9002C68
:1011E000EFD102F0DBF9002070BD00002DE9FC47D3
:1011F0004FF40056009601208DF8040002248DF86B
:10120000054000258DF806508DF80740114F6946BE
:101210003846FFF7D1FB4FF4006841463846FFF7E8
:1012200020FCDFF834904846FFF772F94146384613
:10123000FFF719FC4846FFF76BF900968DF804504C
:101240008DF805408DF8075069463846FFF7B4FB26
:10125000BDE8FC87000C0240FFFF0F0010B5FFF750
:101260001FFFFFF7C3FFBDE81040FFF763BF70B576
:1012700005460E460024002014E004EB440005EB74
:1012800080039978C90706D09A8815F820009968D4
:10129000FFF786FF05E01A7915F82000996800F03D
:1012A00008F8641C08B9B442E7D1002800D12046F0
:1012B00070BD2DE9F04180460E46154602F06EF9EC
:1012C00000244FF47A7702F04DF9404602F01EF9FF
:1012D00002F078F918B1641CA4B2BC42F3D3BC424A
:1012E00006D00BE0307802F011F902F06BF920B172
:1012F00002F054F90120BDE8F081761C6D1EEDB2BC
:10130000F0D202F04BF90020F5E70000F0B58BB009
:101310000446E50A04F01F07C4F34516FFF730F84A
:101320004FF44030019002200290049603970595F7
:1013300020040012000E06900C4C606807900020FC
:1013400008904FF4F07009904FF448700A9001A88B
:10135000FFF72CF8FFF786F80220FFF71DF80028AA
:10136000FAD0208800F04CFB0BB0F0BD200000202C
:101370002DE9F04393B04FF4C86300FB03F50C462E
:10138000114601A8FFF796FD0023174F0DF1040C3D
:10139000786803EB43011CF80120120261444E7887
:1013A000164336028A78324300213E88B7F802801D
:1013B0005FEA022904D500EB440929F8056003E03F
:1013C00000EB440929F80580641C5200491CC9B28D
:1013D0001829EDD304F542745B1CDBB2182BD8D36B
:1013E00013B0BDE8F0830000200000202DE9F04795
:1013F00005460C461646DFF884904FF448774FF4C4
:10140000F07835E07E2A1AD8D9F80C00818821447A
:10141000B94203D90024C18829448DB2C088284428
:10142000404501D9002400252146284600F028F82F
:10143000D9F80C008088204484B2761C18E004F1AE
:101440001800B84202D900241835ADB205F11800D1
:10145000404501D9002400253088010201EB10200D
:1014600082B221462846FFF783FF1834A4B2B61C87
:101470003278002AC6D1BDE8F087000020000020A5
:1014800010B4203AD3B2054AD2681468D2885A43BD
:1014900004EB420210BC00F003B800002000002062
:1014A0002DE9F04300254FF4C8635843DFF87890E6
:1014B000D9F804C0D9F80C7030E0002326E00C26DF
:1014C000B4FBF6F6F6004FF0800808FA06F832F89A
:1014D000156048FA03F818EA060F01D10C2C08D958
:1014E0004FF0010808FA03F816EA080F07D10C2C90
:1014F00005D90CEB4106B9F80240345204E00CEB7C
:101500004106B9F800403452491C5B1CBC889C421F
:10151000D5D8BB88C3F5487319446D1CFB88AB4212
:10152000CBD8BDE8F0830000200000202DE9F04773
:101530008AB015469946DFF87080B8F80040E60A90
:1015400004F01F07C4F3451401EBC10202EB0111C3
:1015500000EB4110D8F8041001EB400AFEF710FF31
:101560004FF44030009002200190039402970496BB
:101570000F200590CDF818A0C5F548700790CDF85C
:10158000209009956846FEF711FFFEF76BFF0220D9
:10159000FEF702FF0028FAD0B8F8000000F030FA99
:1015A0000AB0BDE8F0870000200000202DE9FC5FB4
:1015B000012140F2FF1000F029FC4FF00408CDF8A3
:1015C000008002208DF805008DF8040000208DF8C1
:1015D00006008DF807006946AA48FFF7EDF90E22CC
:1015E0000221A848FFF726FA4FF00809CDF800902D
:1015F0006946A448FFF7E0F90E220321A148FFF74E
:1016000019FA4FF4807ACDF800A069469D48FFF79B
:10161000D3F90E2208219B48FFF70CFA012400940D
:1016200069469948FFF7C8F9092200219648FFF753
:1016300001FA4FF4006BCDF800B069469348FFF70C
:10164000BBF90E220B219148FFF7F4F9200300901B
:1016500069468E48FFF7B0F90E220C218B48FFF740
:10166000E9F90220009069468748FFF7A5F90922A9
:1016700001218548FFF7DEF9402500956946844839
:10168000FFF79AF90E2206218148FFF7D3F92020AF
:10169000009069467F48FFF78FF90E2205217D48AB
:1016A000FFF7C8F9009569467A48FFF785F90E22D9
:1016B00006217848FFF7BEF960030090694671483B
:1016C000FFF77AF90E220D216E48FFF7B3F9A60253
:1016D000009669466E48FFF76FF909220A216C48A7
:1016E000FFF7A8F9E003009069466648FFF764F940
:1016F0000E220F216348FFF79DF900946946664862
:10170000FFF75AF90E2200216348FFF793F980276B
:10171000009769466148FFF74FF90E2207215F489D
:10172000FFF788F9CDF8008069465B48FFF744F978
:101730000E2202215848FFF77DF94FF01008CDF82E
:10174000008069465348FFF737F90E2204215148BB
:10175000FFF770F92003009069464D48FFF72CF918
:101760000E220C214A48FFF765F900954C4D694659
:101770002846FFF721F90E2206212846FFF75AF9DD
:10178000CDF800B069464248FFF716F90E220B214A
:101790003F48FFF74FF9CDF8008069463E48FFF714
:1017A0000BF90E2204213C48FFF744F9CDF80090D4
:1017B00069463648FFF700F90E2203213348FFF748
:1017C00039F9CDF800A069462F48FFF7F5F80E2249
:1017D00008212D48FFF72EF94FF40079CDF800903D
:1017E00069462948FFF7E8F80E2209212648FFF745
:1017F00021F9009769462648FFF7DEF80E220721F7
:101800002348FFF717F9009669462348FFF7D4F8F5
:101810000E220A212048FFF70DF9CDF80090694605
:101820001D48FFF7C9F80E2209211B48FFF702F9EE
:1018300000961C4E69463046FFF7BEF80E220A217C
:101840003046FFF7F7F8CDF8008002208DF805004C
:101850008DF8044000208DF806008DF80740694699
:101860002846FFF7A9F8009769462846FFF7A4F82D
:1018700010212846FFF7F7F880212846FFF7F3F8F4
:10188000BDE8FC9F001C0240000402400000024032
:1018900000180240001002400020024000080240F0
:1018A000000C02400014024010B590B001218806DF
:1018B00000F0E4FA0121C80500F0A8FAFFF776FE6F
:1018C00000F034FD002401940294039404940D94D8
:1018D0000E940F94042207214FF4C07000F05AFBBD
:1018E0004FF4803000F046FB012000F04DFB3D201E
:1018F00000F024FB0028FAD0059406942E200790CF
:101900001720089040F24E30099040F2F7100A90EC
:1019100040F262300B9040F20D200C9001A800F0D4
:10192000DBF810B010BD000030B591B02F20019051
:1019300040F24E3002901820039040F2F7100490CD
:1019400003240594FF20069000200790089009903A
:101950000A904FF480600B9005200C9040F2436099
:101960000E90C01E0F904FF4F07010904FF050404A
:101970000D90144D01A9284600F010F90594124964
:101980000D9161020B9107210C910E4C01A980343D
:10199000204600F003F9012000F04CF9012128460F
:1019A00000F0F0F80121204600F0ECF8012000F0F2
:1019B00041F9064800F00CF8012000F07DF811B064
:1019C00030BD00008468014000B80BD01400002036
:1019D0000149C86070470000200000200649002827
:1019E00004D0064848600120886070474FF050409E
:1019F00048600020886070472000002000B80BD0AD
:101A000001490880704700002000002010B50949F6
:101A10008968002908D00146074800F0B1F8BDE800
:101A20001040012000F006B901460348803800F05C
:101A3000A7F8F4E720000020046901402DE9FC41EB
:101A40000121802000F0E2F94FF48064009401202D
:101A50008DF8040000218DF806108DF807008DF830
:101A600005100C4F69463846FEF7A6FF6600009643
:101A700069463846FEF7A0FFA5000095694638463E
:101A8000FEF79AFF03481830048006800580BDE801
:101A9000FC810000001C02400649002804D00868B0
:101AA00040F0010008607047086820F001000860FD
:101AB00070470000186801400649002804D00868F3
:101AC00040F4803008607047086820F48030086077
:101AD000704700001868014030B5264A136826494F
:101AE0000B401360038A1B04146845692C431C4394
:101AF0001460121D13680B401360038B1B041468E1
:101B0000C5692C431C431460121D13680B401360FD
:101B1000038C1B041468456A2C431C431460121D7B
:101B200013680B401360018D09041368C46A2343D2
:101B30000B431360111D0A68104B1A400A60D0E96C
:101B400000231A43D0E9023423431A430B681A4393
:101B50000A60416B0A02018E0B04064924310C68AD
:101B600004F07F440C600C68806B134304431C43F7
:101B70000C6030BD0868014000F800F08F88FE0F4F
:101B800041617047002904D0016841F00101016002
:101B90007047016821F001010160704770B58A88C3
:101BA0001204436803F4704343600B6813434360BB
:101BB0008A891204836803F4704383608B6813433B
:101BC0008360026922F0070202610A690261CA6940
:101BD00013020A8C120491F824402406856900251A
:101BE00085618E6922431E4316438661426922F055
:101BF000FF0242614A694261C26940F207739A4337
:101C0000C261D1E90A231A43C261826A85620A6B02
:101C100082620A8F1204C36A03F0E023C3624B6B33
:101C20001343C362026B6FF30A020263C96B016361
:101C300070BD000001490860704700002468014041
:101C40002DE9FC410121084600F0E0F82020009039
:101C5000012400268DF806608DF8074002258DF8D6
:101C600004508DF805501D4F69463846FEF7A4FE16
:101C7000012205213846FEF7DDFE0121022000F099
:101C8000C5F8670300978DF804408DF806608DF85D
:101C900007408DF80550DFF8488069464046FEF75A
:101CA0008BFE39464046FEF7DCFE0121022000F0A3
:101CB000ADF8270300978DF804408DF806608DF885
:101CC00007408DF8055069464046FEF775FE3946D7
:101CD0004046FEF7C6FEBDE8FC8100000000024061
:101CE00000040240FEE770B588B0054601210846B1
:101CF00000F0B6F805A800F0F9FF681E069008206D
:101D0000ADF814000024ADF81C40ADF81640C6062E
:101D100005A9304600F0ACFF7020ADF800000120AE
:101D2000ADF80200ADF80440801E00EB55000290B3
:101D30000220ADF80C00ADF810406946304600F0C6
:101D400063FF08B070BD01464FF0804000F026BF31
:101D500010B5FFF775FFBDE8104000F041BF7047B8
:101D600030B50F23C27801250178002A1FD0154A0B
:101D7000126802F4E062C2F5E062C2F30722C2F127
:101D80000404D3404278A24084781C4014432201CA
:101D900001F1E02181F80024007800F01F018D405E
:101DA0004009800000F1E020C0F8005130BD01F092
:101DB0001F0085404809800000F1E020C0F88051F4
:101DC00030BD00000CED00E0024908430249086004
:101DD000704700000000FA050CED00E070B54FF60A
:101DE000FF70FFF793FA00F0CDFF0024054D04EBE0
:101DF000840005EB8000C1688847641CE4B2052CB0
:101E0000F5D370BDD002002070470000054A0029BC
:101E100003D011680143116070471168814311605C
:101E20007047000030380240054A002903D011688D
:101E300001431160704711688143116070470000D1
:101E400010380240054A002903D01168014311608F
:101E500070471168814311607047000038380240B4
:101E6000054A002903D011680143116070471168C9
:101E7000814311607047000040380240054A002944
:101E800003D01168014311607047116881431160EC
:101E9000704700004438024070B5244B196801F0C7
:101EA0000C01234C00291ED0224E04291DD00829E4
:101EB0001DD00460196801F0F00109091E4A545C44
:101EC0000168E14041601C6804F4E054A40A145D18
:101ED00021FA04F484601B6803F460435B0BD25C5A
:101EE000D140C16070BD0460E4E70660E2E70F4ADC
:101EF000121F1168C1F38055116801F03F0135B11F
:101F0000B6FBF1F11468C4F38814614305E0B4FB37
:101F1000F1F11468C4F3881461431268C2F30142FA
:101F2000521C5200B1FBF2F10160C3E708380240D5
:101F30000024F40040787D010000002002460020CB
:101F4000510901290BD002290DD00949096802F075
:101F50001F02012393400B4200D001207047044927
:101F600074390968F3E70249091F0968EFE70000BF
:101F700074380240034A116821F440310143116072
:101F8000704700008C380240014908677047000024
:101F900000004742800140EA0160024940EA0270C5
:101FA00008607047883802402DE9FC5F0121FC2061
:101FB000FFF72CFF02208DF804008DF805000020AB
:101FC0008DF806008DF80700012000906946D14881
:101FD000FEF7F2FC0C220021CE48FEF72BFD02207A
:101FE00000906946CB48FEF7E7FC0C220121C94866
:101FF000FEF720FD042000906946C648FEF7DCFC91
:102000000C220221C348FEF715FD08200090694606
:10201000C048FEF7D1FC0C220321BE48FEF70AFDA2
:10202000102700976946BB48FEF7C6FC0C22042126
:10203000B848FEF7FFFC4FF02008CDF80080694655
:10204000B448FEF7B9FC0C220521B248FEF7F2FCB9
:102050004FF48059CDF800906946AE48FEF7ACFCCD
:102060000C221146AB48FEF7E5FC4FF4005ACDF8C0
:1020700000A06946A748FEF79FFC0C220D21A54849
:10208000FEF7D8FCBD0200956946A248FEF794FC15
:102090000C220E219F48FEF7CDFC6C00009469468F
:1020A0009C48FEF789FC0C220F219A48FEF7C2FCDF
:1020B0000120009069469848FEF77EFC0C22002122
:1020C0009548FEF7B7FC0220009069469248FEF75B
:1020D00073FC0C2201219048FEF7ACFC0095694688
:1020E0008E48FEF769FC0C220E218C48FEF7A2FCFC
:1020F000009469468948FEF75FFC0C220F2187484F
:10210000FEF798FC0120009069468448FEF754FCD5
:102110000C2200218148FEF78DFC022000906946C8
:102120007E48FEF749FC0C2201217C48FEF782FC28
:102130004FF0800BCDF800B069467948FEF73CFCC3
:102140000C2207217648FEF775FCE61100966946D9
:102150007348FEF731FC0C2208217148FEF76AFC37
:10216000A011009069466E48FEF726FC0C2209215A
:102170006B48FEF75FFC6011009069466848FEF707
:102180001BFC0C220A216648FEF754FC201100902B
:1021900069466348FEF710FC0C220B216048FEF7ED
:1021A00049FCCDF8009069465D48FEF705FC0C221D
:1021B00011465B48FEF73EFCCDF800A06946584842
:1021C000FEF7FAFB0C220D215548FEF733FC009573
:1021D00069465348FEF7F0FB0C220E215048FEF7EB
:1021E00029FC009469464E48FEF7E6FB0C220F21BD
:1021F0004B48FEF71FFC009669464848FEF7DCFB9B
:102200000C2208214548FEF715FCA01100906946F4
:102210004248FEF7D1FB0C2209214048FEF70AFC98
:102220006011009069463D48FEF7C6FB0C220A216A
:102230003A48FEF7FFFB402000903A4D6946284699
:10224000FEF7BAFB0C2206212846FEF7F3FB0097A7
:1022500069463148FEF7B0FB0C2204212E48FEF7F8
:10226000E9FBCDF8008069462B48FEF7A5FB0C2260
:1022700005212948FEF7DEFB012000902A4F694620
:102280003846FEF799FB0C2200213846FEF7D2FBB8
:102290002011009069461F48FEF78EFB0C220B218F
:1022A0001C48FEF7C7FB009469461B48FEF784FBF9
:1022B0000C220F211848FEF7BDFB00966946164810
:1022C000FEF77AFB0C2208211348FEF7B3FBCDF88A
:1022D00000B069462846FEF76FFB0C22072128460E
:1022E000FEF7A8FB0220009069460D48FEF764FB4C
:1022F0000C2201210A48FEF79DFB0120009069464F
:102300000748FEF759FB0C2200210548FEF792FB17
:10231000BDE8FC9F0014024000180240000C02407F
:1023200000100240001C02400008024000B593B0BB
:10233000FFF73AFE01210846FFF784FD02200190D5
:1023400007220292042103910492059006900790BF
:1023500001200890002009900A9110210B91402142
:102360000C914FF4C0710D910E904FF400610F91DC
:1023700010908800119001A8129008A8FEF790FA1A
:1023800000F002F813B000BD2DE9FF4101250095D2
:102390000826019602950024039420210120FEF7CF
:1023A00053FA0028F9D16846FEF76AFA0A2000F0CD
:1023B00041F802200090019602950394202101200B
:1023C000FEF742FA0028F9D16846FEF759FA0320D1
:1023D0000090019604270297039420210120FEF724
:1023E00033FA0028F9D16846FEF74AFA2021012085
:1023F000FEF72AFA0028F9D16846FEF741FA40F2C2
:102400003120009701960295039020210120FEF7CC
:102410001BFA0028F9D16846FEF732FA40F26A50FA
:10242000FEF7C2FA20210120FEF70EFA0028F9D1AA
:10243000BDE8FF8101B581B005490198484300908E
:1024400002E00098401E009000980028F9D10CBDD1
:10245000A0860100002904D0018841F040010180DC
:102460007047018821F04001018070472DE9F0415B
:1024700004460F4615460F4840260680032000F00C
:1024800087F8C7F3074000F083F8C7F3072000F090
:102490007FF8F8B200F07CF804E0FF2000F078F854
:1024A00004F8010B6D1EADB2F7D20248801E068003
:1024B000BDE8F0811A1402402DE9F04387B00121F4
:1024C0002020FFF7A3FC01210805FFF7D7FCDFF868
:1024D000B890052207214846FEF7ACFA05220821EC
:1024E0004846FEF7A7FA052209214846FEF7A2FA58
:1024F0008020009002258DF805508DF804500024AE
:102500008DF806408DF8074069464846FEF754FAB4
:10251000E801009069464846FEF74EFA4FF400780D
:10252000CDF8008069464846FEF746FA40270097F6
:1025300001268DF8046069464846FEF73DFA1248C8
:1025400018300780ADF808404FF48270ADF80A00EB
:10255000ADF80C40ADF80E50ADF81060ADF812803B
:10256000ADF81440ADF816400720ADF81800074C40
:1025700002A9204600F04FF801212046FFF76AFF2C
:1025800007B0BDE8F0830000001402400050014095
:102590002DE9F0410746184C4FF480552560174E41
:1025A00009E02068411E216005D2002000F050F8AB
:1025B000C0B2BDE8F0810221304600F021F80028C9
:1025C000EFD03946304600F024F8256008E0216855
:1025D0004A1E226004D2012000F03AF8C0B2E8E7B7
:1025E0000121304600F00CF80028F0D0304600F011
:1025F0000EF8C0B2DDE700001000002000500140DE
:102600000246002012890A4200D0012070478089CA
:1026100070478181704730B5028802F441530A88BF
:102620004C88CD8822438C882C4322430C8922433A
:102630004C8922438C892243CC8922431A4302804D
:10264000828B22F400628283098A018230BD0000FD
:1026500010B5014602A000F099FC002010BD00005A
:102660003C3C2D464C4153482D4552524F522D3E35
:102670003E2053504920B5C8B4FDB3ACCAB1216562
:1026800072726F72436F6465203D2025640A0000FA
:102690007047000010B58A07120F0F23934021F0F6
:1026A00003040649214401F608010C689C430C60B0
:1026B0000B68904003430B6010BD000000300140E8
:1026C0001CB501210520FFF7A1FB0120009000208F
:1026D0008DF804008DF8070069460548FEF76CF98F
:1026E0004FF40050009069460248FEF765F91CBDA2
:1026F000000002400008024010B50446FFF7E0FF6A
:1027000000F0FDFA2046BDE8104000F001B80000DE
:102710003EB5044601211020FFF7A2FB0D48B0FB97
:10272000F4F0401E01905920ADF800000A4C6946B3
:10273000204600F09DFA0121204600F029FA0122EE
:102740001146204600F042FA0121204600F026FA08
:102750003EBD000040420F00001000402DE9F04156
:102760003D4C6078FDF7F2FD207800F01DF9E07C2B
:10277000DFF8E8804FF4005730B1A588A07940B366
:102780000120FFF7E0FA27E0A088A1784FF080450C
:10279000012905D02846BDE8F041002100F0FEB92E
:1027A000962803D09620A080FFF79DFA01212846A5
:1027B00000F0F4F9E078012805D039464046BDE83C
:1027C000F041FEF750B939464046BDE8F041FEF70A
:1027D00048B90020FFF7B7FAA27C0126012A10D0E1
:1027E000022A1CD0032A28D0042A08D11C4910022E
:1027F000088041001A48801E018081140180BDE8D4
:10280000F0814FF4FA60854202D0A080FFF76BFAA6
:10281000A67139464046BDE8F041FEF722B942F2C2
:102820001070854202D0A080FFF75DFAA67139468C
:102830004046BDE8F041FEF716B94EF660208542ED
:1028400002D0A080FFF74FFAA67139464046BDE896
:10285000F041FEF708B90000B80200200004024071
:102860001A1C02401CB50021019100912E4A1068EB
:1028700040F4803010604FF4A043106800F4003042
:1028800000900198401C0190009810B9019898425E
:10289000F3D11068800302D50120009000E0009180
:1028A000009801283FD120484030016841F0805114
:1028B00001601E49086840F4404008601A4808302A
:1028C00003680360036843F400430360036843F450
:1028D000A0530360041F164B2360136843F08073FA
:1028E000136013689B01FCD50A6842F480320A60C9
:1028F0004A68D203FCD50A6842F400320A604A688A
:102900009203FCD50B4A40F205711160016821F079
:1029100003010160016841F0020101600168C1F337
:1029200081010229FAD11CBD00380240007000402C
:10293000195A4007003C02402DE9FC4101210220C8
:10294000FFF764FA1020009001248DF8044000275E
:102950008DF806708DF8074002268DF80560DFF8C7
:10296000448069464046FEF727F810214046FEF7AE
:102970007AF801210220FFF749FAE50300958DF866
:1029800004408DF806708DF807408DF805606946A3
:102990004046FEF711F829464046FEF764F8BDE8C8
:1029A000FC81000000040240054A012803D01021E8
:1029B0001046FEF758B810211046FEF752B8000036
:1029C00000040240007AC107034802D001210170CF
:1029D0007047002101707047B8020020827A002100
:1029E0000548002A06D001228270C170C17196216B
:1029F0008171704781707047B8020020817A00228F
:102A00000548002906D001218170C170C27196214C
:102A10008171704782707047B8020020007A4FF0D1
:102A20000101C207074807D0C1748170C17181716B
:102A300042F21071818070470022C2748270C171AD
:102A400070470000B80200207047000010B512481F
:102A5000016841F4700101601048016841F0010112
:102A600001600E4A00210832116002680C4B1A40C6
:102A70000260031D0B4A1A60026822F48022026081
:102A800006480C300160FFF7EDFE03494FF000608F
:102A90008039086010BD000088ED00E00038024079
:102AA000FFFFF6FE1030002470B52D4E0121304698
:102AB00000F080F8002851D02A4D2868401C28607A
:102AC00001212948FDF7C6FF044671142748FDF788
:102AD000C1FF14EB4001264C10D0022912D003296B
:102AE00014D024A000F052FA6089296888422FD8B7
:102AF000A289208A82420DD911460CE0A089401C8F
:102B0000A081F1E7208A401C2082EDE7E089401C8B
:102B1000E081E9E70146E3898B4200D31946884208
:102B200002D10320A0740EE08B4202D10120A074D8
:102B300009E08A4202D10220A07404E00420A074BB
:102B400010A000F023FA00202860A081E0812082FC
:102B50003046BDE87040012100F01DB870BD000096
:102B600000100040B40200200000024000080240B3
:102B7000B8020020CEB4D6AAB5C4B7C5B5E7C0E048
:102B8000D0CD0A00CDB3BCC6B4EDCEF30A00000030
:102B9000C94301827047C94301827047002904D0AC
:102BA000018841F0010101807047018821F0010195
:102BB0000180704702460020138A0B4092890A4028
:102BC000002B02D0002A00D001207047002A03D039
:102BD00082890A438281704782898A438281704751
:102BE00008B54FF4E060FFF7EFF81C208DF8000007
:102BF00001208DF8010000218DF802108DF80300EE
:102C00006846FFF7ADF808BD30B5028C22F001022E
:102C10000284058C8388028B22F0700222F003026A
:102C20000C88144325F002028D8915434A882A43F3
:102C30000D4DA84202D00D4DA8420FD122F008053B
:102C4000CA892A4322F004058A882A4323F4807320
:102C500023F400730D8A1D434B8A2B438380048326
:102C600089684163028430BD0000014000040140D6
:102C700030B50288164C174DA0420DD0A8420BD09B
:102C8000B0F1804F08D0144B984205D0134B9842B6
:102C900002D0134B984203D122F070034A881A43A2
:102CA000104B984206D0104B984203D022F4407348
:102CB0000A891A4302804A68C2620A880285A042D1
:102CC00001D0A84201D1897A01860121818230BDDB
:102CD00000000140000401400004004000080040E2
:102CE000000C004000100040001400404FF0FF3185
:102CF000416000210180018141808172704708B5E7
:102D00004FF4E060FFF760F836208DF800000020F7
:102D10008DF8010003208DF8020001208DF80300DA
:102D20006846FFF71DF808BD2DE9F04106460F463D
:102D30000025DFF84C8005EB850008EB8004A188B6
:102D4000B14216D3E188B94213D36188B94210D891
:102D500038F82000B0420CD8A07A50B92089401C25
:102D600020810120A072E168204688472169204621
:102D700088476D1CEDB2052DDDD3BDE8F081000064
:102D8000D002002010B52448002101804180642237
:102D900082806023C38001818172204CC460204CFA
:102DA00004618182C3820283C0234383818381774C
:102DB0001C4C04621C4C44620185438582854FF49F
:102DC0009073C385018680F83210184C4463184C08
:102DD00084638187C387A0F840204FF4C073A0F8B4
:102DE0004230A0F8441080F84610124C8464124C13
:102DF000C464A0F85010A0F85230A0F854204FF44A
:102E0000F072A0F85620A0F8581080F85A100B491C
:102E1000C1650B49016610BDD00200208D05000878
:102E2000C529000835050008690300083D060008AB
:102E3000FD290008E5050008DD29000895060008C1
:102E40001D2A00082DE9F04106460F460025DFF84F
:102E5000488005EB850008EB8004A188B14214D3BB
:102E6000E188B94211D36188B9420ED838F8200000
:102E7000B0420AD8A07A012807D10020A072E168E8
:102E8000204688472169204688476D1CEDB2052DF4
:102E9000DFD3BDE8F0810000D0020020002904D07B
:102EA000818941F4005181817047818921F4005169
:102EB000818170470246002012880A4200D001201A
:102EC000704700007FB504460D46208A20F440512B
:102ED000E88808432082A08941F20C618843A988D0
:102EE0002A8911436A8902431143A181A08A20F4EF
:102EF0004071A8890843A0826846FEF7CDFF1E48AE
:102F0000844202D01D48844201D1039800E0029817
:102F1000A189090408D500EBC00101EB0010296864
:102F20004900B0FBF1F007E000EBC00101EB00103D
:102F300029688900B0FBF1F06422B0FBF2F10901CD
:102F40000B096FF018056B4300EB8300A3891D0488
:102F50004FF0320307D503EBC000B0FBF2F000F0F6
:102F60000700084306E003EB0010B0FBF2F000F0AE
:102F70000F00084320817FBD001001400014014074
:102F8000C1F3080181807047FEE700000FB4054BD4
:102F900010B503A9044A029800F018F810BC5DF8B7
:102FA00014FB000031340008CC02002002E008C805
:102FB000121F08C1002AFAD170477047002001E0B3
:102FC00001C1121F002AFBD1704700002DE9FF4FFD
:102FD0008DB00F460546002606E025280BD0DDE91A
:102FE0000F1290476D1C761C28780028F5D111B07F
:102FF0003046BDE8F08F0024A246A1460122EC49EC
:1030000000E0044315F8013F203B02FA03F00842B8
:10301000F7D128782A2810D06FF02F022878A0F155
:103020003001092914D80AEB8A0102EB410144F06E
:10303000020400EB010A6D1CF0E701CF5FEA000A11
:1030400003D544F40054CAF1000A44F002046D1C94
:1030500028782E2817D115F8010F44F004042A28E7
:103060000ED06FF02F022878A0F1300109290AD87C
:1030700009EB890102EB410100EB01096D1CF2E74C
:1030800057F8049B6D1C28786C280FD006DC4C2860
:1030900017D068280DD06A2814D104E0742810D005
:1030A0007A280FD10DE044F400140AE044F48014AF
:1030B00001E044F440146978814202D104F580149F
:1030C0006D1C6D1C2A786E2A1FD00CDC632A31D04F
:1030D00004DC002A8BD0582A11D1A3E0642A68D0DE
:1030E000692A0CD165E0732A2ED004DC6F2A73D0D4
:1030F000702A04D19BE0752A6FD0782A6ED01046D2
:10310000DDE90F129047761C50E1C4F3025002280B
:1031100006D0032809D0042801CF09D0066045E174
:1031200001CFF117C0E9006140E101CF06803DE128
:1031300006703BE117F8040B8DF8000000208DF8B5
:103140000100EB46012003E057F804BB4FF0FF30CD
:1031500061074FF0000102D40DE008F1010188463B
:1031600049450FDA8045F8DB1BF808100029F4D137
:1031700008E008F1010188468142FADB1BF80810DB
:103180000029F6D1DDE90F23AAEB0800814621468C
:1031900000F036F9304400EB080604E0DDE90F12D8
:1031A0001BF8010B9047B8F10108F7D221464846B9
:1031B000F7E00A21C4F302534FF0000B0891022BF1
:1031C00004D001CFC117032B09D00AE0FF1D27F05F
:1031D0000707F7E8020108E032E01FE020E000B254
:1031E000C117042B01D140B2C117031E71F10003B6
:1031F00007DA4FF0000CD0EB0C006CEB01012D2333
:1032000002E0230504D52B238DF82430012303E0AD
:10321000E30701D02023F7E7984658E00A2110E0A1
:1032200010210EE010204FF0000B08900CE0102150
:103230004FF0000B44F004044FF00809089103E03C
:1032400008214FF0000B0891C4F30253022B04D065
:1032500001CF0021032B06D006E0FF1D27F0070752
:10326000F7E8020103E080B2042B00D1C0B24FF0B6
:10327000000823072BD5702A07D0DDF820C08CF07A
:10328000100C5CEA0B0C05D00EE040238DF82430C6
:10329000012308E050EA010306D030238DF82430E2
:1032A0008DF8252002239846DDF820C08CF0080C0C
:1032B0005CEA0B0C0BD150EA010301D1630706D580
:1032C00030238DF824304FF00108A9F10109582A64
:1032D00004D038A20B9208AA0A920BE03AA2F9E7AE
:1032E0005B46089AFCF7A2FF0B9B9B5C0A9A521E56
:1032F0000A92137050EA0102F2D10A98ADEB000075
:1033000000F1200B600702D524F4803401E04FF077
:103310000109D94502DDA9EB0B0000E0002000EB1C
:103320000B0141440890AAEB010AE00306D4DDE951
:103330000F232146504600F063F806444FF0000981
:1033400008E009A911F80900DDE90F12904709F119
:103350000109761CC145F4DBE0030CD5DDE90F2340
:103360002146504600F04CF8064404E0DDE90F1217
:1033700030209047761C0899481E08900029F5DCFB
:1033800008E00A980A990078491C0A91DDE90F12B1
:103390009047761CBBF10001ABF1010BF1DC21463B
:1033A0005046DDE90F2300F019F806446D1C1BE6BA
:1033B000092801003031323334353637383961620B
:1033C00063646566000000003031323334353637CF
:1033D0003839414243444546000000002DE9F041A0
:1033E000044600251E461746880404D405E03946E5
:1033F0002020B0476D1C641EF9D52846BDE8F08139
:103400002DE9F041044600251E469046C80301D52B
:10341000302700E02027880404D505E041463846DF
:10342000B0476D1C641EF9D52846BDE8F081000048
:1034300070B50446064DE1B22846FFF7A1FD802194
:103440002846FFF737FD0028F9D0204670BD000060
:103450000010014010B50C4C20212046FDF701FB67
:1034600000F014F810212046FDF7FDFA00F00EF8E8
:1034700010212046FDF7F5FA00F008F82046BDE8D7
:1034800010402021FDF7EFBA001C02400020401C34
:10349000C0B23228FBD3704710B50A4C2021204619
:1034A000FDF7E1FAFFF7F2FF10212046FDF7DBFA06
:1034B000FFF7ECFF10212046FDF7D3FABDE81040DE
:1034C000FFF7E4BF001C024070B5002400250E4E3B
:1034D0006006040E10213046FDF7C5FAFFF7D6FF4F
:1034E00020213046FDF7B6FA08B1641CE4B2102181
:1034F0003046FDF7B6FAFFF7C9FF6D1CEDB2082D97
:10350000E6D3204670BD0000001C024070B50546A1
:103510000024134E280604D520213046FDF7A3FAD7
:1035200003E020213046FDF79CFAFFF7AFFF1021A2
:103530003046FDF798FAFFF7A9FF10213046FDF756
:1035400090FA072C03D120213046FDF78CFA68064B
:10355000050EFFF79BFF641CE4B2082CDAD370BDA4
:10356000001C024010B50C4C20212046FDF77BFAD0
:1035700010212046FDF777FAFFF788FF202120462B
:10358000FDF76FFAFFF782FF10212046FDF769FA79
:10359000BDE81040FFF77ABF001C024010B5084C90
:1035A00020212046FDF75DFA10212046FDF75BFA49
:1035B000FFF76CFF2046BDE810402021FDF753BA0D
:1035C000001C024070B50E4D20212846FDF74BFA35
:1035D000FFF75CFF10212846FDF745FAFFF756FF7D
:1035E00020212846FDF736FA08B1012400E0002426
:1035F00010212846FDF735FAFFF748FF204670BD39
:10360000001C0240FEF71AFAFCF736FFFDF71AFB22
:10361000FEF74AF9FEF788F90120FEF73DFA00208F
:10362000FEF7DCF94FF400442046FDF76FFE012061
:10363000FEF7D4F9FF20FEF7E9F92046FDF766FE14
:10364000FEF7CCFB05480089FFF756F8FFF774F941
:10365000FEF77EFBFFF782F8FCE70000B8020020CF
:10366000000000000000000000000000000000005A
:10367000000000000000000000000000000000004A
:10368000000000000000000000000000000000003A
:1036900000008001800180018001800180018001A3
:1036A0008001800180018001800180010000000014
:1036B0008001800100000000000000000000000008
:1036C00000000000CC00CC00CC00CC00CC00CC0032
:1036D00000000000000000000000000000000000EA
:1036E00000000000000000000000000000000000DA
:1036F000000000000000000000000000600C600CF2
:10370000600C30063006FE1FFE1F30063807180317
:10371000FE1FFE1F180318038C018C018C01000092
:1037200000008000E003F80F9C0E8C1C8C188C00AD
:103730009800F801E007800E801C8C188C189C18EB
:10374000B80CF00FE00380008000000000000000D3
:103750000000000000000E181B0C110C11061106D1
:10376000110311039B018E01C038C06C604460449A
:10377000304430441844186C0C380000000000003D
:103780000000E001F0033807180618063003F001C6
:10379000F000F8009C310E33061E061C061C063F86
:1037A000FC73F02100000000000000000000000099
:1037B000000000000C000C000C000C000C000C00C1
:1037C00000000000000000000000000000000000F9
:1037D00000000000000000000000000000000000E9
:1037E0000000000200038001C000C0006000600013
:1037F0003000300030003000300030003000300049
:1038000060006000C000C0008001000300020000F2
:10381000000020006000C000800180010003000360
:103820000006000600060006000600060006000668
:103830000003000380018001C00060002000000040
:10384000000000000000000000000000C000C000F8
:10385000D806F807E0013003380700000000000038
:103860000000000000000000000000000000000058
:103870000000000000000000000000008001800146
:10388000800180018001FC3FFC3F800180018001BC
:103890008001800100000000000000000000000026
:1038A0000000000000000000000000000000000018
:1038B0000000000000000000000000000000000008
:1038C0000000800180010001000180000000000074
:1038D00000000000000000000000000000000000E8
:1038E0000000000000000000E007E007000000000A
:1038F00000000000000000000000000000000000C8
:1039000000000000000000000000000000000000B7
:1039100000000000000000000000000000000000A7
:103920000000C000C0000000000000000000000017
:103930000000000C000C0006000600060003000357
:1039400000038003800180018001C000C000C0002E
:1039500060006000000000000000000000000000A7
:103960000000E003F007380E180C0C180C180C18A7
:103970000C180C180C180C180C180C18180C380E05
:10398000F007E0030000000000000000000000005D
:10399000000000018001C001F00198018801800150
:1039A000800180018001800180018001800180010F
:1039B0008001800100000000000000000000000005
:1039C0000000E003F80F180C0C180C180018001871
:1039D000000C000600038001C000600030001800E9
:1039E000FC1FFC1F000000000000000000000000A1
:1039F0000000E001F807180E0C0C0C0C000C00067F
:103A0000C003C007000C001800180C180C18180C84
:103A1000F807E003000000000000000000000000C4
:103A20000000000C000E000F000F800DC00C600C99
:103A3000600C300C180C0C0CFC3FFC3F000C000C14
:103A4000000C000C0000000000000000000000005E
:103A50000000F80FF80F180018000C00EC03FC072A
:103A60001C0E001C0018001800180C181C0C180E56
:103A7000F807E00300000000000000000000000064
:103A80000000C007F00F381C181818000C00CC03F9
:103A9000EC0F3C0E1C1C0C180C180C18181C380EC3
:103AA000F007E0030000000000000000000000003C
:103AB0000000FC1FFC1F000C000600060003800332
:103AC0008001C001C000E0006000600070003000B4
:103AD0003000300000000000000000000000000086
:103AE0000000E003F007380E180C180C180C38060C
:103AF000F007F007180C0C180C180C180C18380CE0
:103B0000F80FE003000000000000000000000000CB
:103B10000000E003F007380E1C0C0C180C180C18F1
:103B20001C1C381EF81BE0190018000C000C1C0EA1
:103B3000F807F00100000000000000000000000095
:103B40000000000000000000000000008001800173
:103B50000000000000000000000000000000000065
:103B60008001800100000000000000000000000053
:103B70000000000000000000000000008001800143
:103B80000000000000000000000000000000000035
:103B900080018001000100018000000000000000A1
:103BA0000000000000000000000000000000000015
:103BB0000010001C800FE003F8001800F800E0037C
:103BC000800F001C0010000000000000000000003A
:103BD00000000000000000000000000000000000E5
:103BE000F81F000000000000F81F000000000000A7
:103BF00000000000000000000000000000000000C5
:103C000000000000000000000000000000000000B4
:103C100008003800F001C007001F0018001FC0078F
:103C2000F001380008000000000000000000000063
:103C30000000E003F80F180C0C180C180018000C0A
:103C4000000600038001C000C000C00000000000AA
:103C5000C000C000000000000000000000000000E4
:103C600000000000E00718180420C229224A11446D
:103C700009440944094409221113E20C02400420BA
:103C80001818E0070000000000000000000000001D
:103C9000000080038003C006C006C006600C600CF4
:103CA000301830183018F83FF83F1C700C600C606A
:103CB00006C006C000000000000000000000000078
:103CC0000000FC03FC0F0C0C0C180C180C180C0C4E
:103CD000FC07FC0F0C180C300C300C300C300C189E
:103CE000FC1FFC07000000000000000000000000B6
:103CF0000000C007F01F38381C300C70066006004A
:103D00000600060006000600060006600C701C3067
:103D1000F01FE007000000000000000000000000AD
:103D20000000FE03FE0F060E0618061806300630C9
:103D30000630063006300630063006180618060E25
:103D4000FE0FFE0300000000000000000000000065
:103D50000000FC3FFC3F0C000C000C000C000C00B1
:103D6000FC1FFC1F0C000C000C000C000C000C00D5
:103D7000FC3FFC3F000000000000000000000000CD
:103D80000000F83FF83F180018001800180018004D
:103D9000F81FF81F18001800180018001800180065
:103DA00018001800000000000000000000000000E3
:103DB0000000E00FF83F3C780E6006E007C003000B
:103DC000030003FE03FE03C007C006C00EC03CF0A4
:103DD000F83FE00F000000000000000000000000BD
:103DE00000000C300C300C300C300C300C300C302F
:103DF000FC3FFC3F0C300C300C300C300C300C30E5
:103E00000C300C300000000000000000000000003A
:103E1000000080018001800180018001800180011B
:103E2000800180018001800180018001800180018A
:103E30008001800100000000000000000000000080
:103E40000000000600060006000600060006000648
:103E500000060006000600060006180618063807C9
:103E6000F003E0010000000000000000000000007E
:103E7000000006300618060C060606038601C6007A
:103E800066007600DE008E0106030606060C0618A4
:103E90000630066000000000000000000000000086
:103EA000000018001800180018001800180018006A
:103EB0001800180018001800180018001800180042
:103EC000F81FF81F000000000000000000000000C4
:103ED00000000EE01EF01EF01EF036D836D836D8A0
:103EE00036D866CC66CC66CCC6C6C6C6C6C6C6C6FE
:103EF00086C386C300000000000000000000000030
:103F000000000C301C303C303C306C306C30CC301D
:103F1000CC308C310C330C330C360C360C3C0C3C56
:103F20000C380C3000000000000000000000000011
:103F30000000E007F81F1C380E70066003C003C0C5
:103F400003C003C003C003C003C006600E701C386A
:103F5000F81FE00700000000000000000000000063
:103F60000000FC0FFC1F0C380C300C300C300C30F7
:103F70000C18FC1FFC070C000C000C000C000C00C3
:103F80000C000C0000000000000000000000000019
:103F90000000E007F81F1C380E70066003E003C045
:103FA00003C003C003C003C007E006630E3F1C3C10
:103FB000F83FE0F700C00000000000000000000033
:103FC0000000FE0FFE1F06380630063006300638A9
:103FD000FE1FFE0706030606060C06180618063026
:103FE0000630066000000000000000000000000035
:103FF0000000E003F80F1C0C0C180C180C001C003F
:10400000F803E00F001E0038063006300E301C1C8E
:10401000F80FE007000000000000000000000000B2
:104020000000FE7FFE7F8001800180018001800111
:104030008001800180018001800180018001800178
:10404000800180010000000000000000000000006E
:1040500000000C300C300C300C300C300C300C30BC
:104060000C300C300C300C300C300C300C3018187C
:10407000F81FE00700000000000000000000000042
:10408000000003600630063006300C180C180C18BF
:10409000180C180C380E30063006700760036003E9
:1040A000C001C0010000000000000000000000008E
:1040B00000000360C361C361C36166336633663366
:1040C0006633663366336C1B6C1B6C1B2C1A3C1EF0
:1040D000380E380E00000000000000000000000054
:1040E00000000FE00C7018303018700C600EC00724
:1040F00080038003C003E006700C301C18180C30DD
:104100000E6007E00000000000000000000000005A
:10411000000003C006600C301C383818300C6006F4
:10412000E007C003800180018001800180018001DF
:10413000800180010000000000000000000000007D
:104140000000FC7FFC7F006000300018000C0006BF
:1041500000038001C0006000300018000C00060061
:10416000FE7FFE7F00000000000000000000000055
:104170000000E003E0036000600060006000600099
:10418000600060006000600060006000600060002F
:1041900060006000600060006000E003E003000079
:1041A000000030003000600060006000C000C0000F
:1041B000C000C001800180018001000300030003F2
:1041C00000060006000000000000000000000000E3
:1041D0000000E003E003000300030003000300030A
:1041E00000030003000300030003000300030003B7
:1041F00000030003000300030003E003E0030000EA
:1042000000000000C001C0016003600360033006CD
:104210003006180C180C0000000000000000000020
:10422000000000000000000000000000000000008E
:10423000000000000000000000000000000000007E
:10424000000000000000000000000000000000006E
:104250000000FFFFFFFF0000000000000000000062
:1042600000000C000C000C000C000C000C00000006
:10427000000000000000000000000000000000003E
:10428000000000000000000000000000000000002E
:10429000000000000000000000000000F003F8072C
:1042A0001C0C0C0C000FF00FF80C0C0C0C0C1C0F61
:1042B000F80FF018000000000000000000000000EF
:1042C000000018001800180018001800D803F80F94
:1042D000380C181818181818181818181818380C36
:1042E000F80FD803000000000000000000000000EC
:1042F000000000000000000000000000C003F00704
:10430000300E180C1800180018001800180C300E89
:10431000F007C003000000000000000000000000E3
:10432000000000180018001800180018C01BF01F2B
:10433000301C181818181818181818181818301CC5
:10434000F01FC01B00000000000000000000000083
:10435000000000000000000000000000C003F00F9B
:10436000300C1818F81FF81F180018003818301CE7
:10437000F00FC00700000000000000000000000077
:104380000000800FC00FC000C000C000F007F007A1
:10439000C000C000C000C000C000C000C000C0001D
:1043A000C000C0000000000000000000000000008D
:1043B000000000000000000000000000E00DF80F09
:1043C000180E0C0C0C0C0C0C0C0C0C0C0C0C180E11
:1043D000F80FE00D000C0C0C1C06F807F0010000B3
:1043E000000018001800180018001800D807F80F6F
:1043F000381C181818181818181818181818181819
:10440000181818180000000000000000000000004C
:104410000000C000C000000000000000C000C0009C
:10442000C000C000C000C000C000C000C000C0008C
:10443000C000C000000000000000000000000000FC
:104440000000C000C000000000000000C000C0006C
:10445000C000C000C000C000C000C000C000C0005C
:10446000C000C000C000C000C000F800780000001C
:1044700000000C000C000C000C000C000C0C0C06D6
:104480000C038C01CC006C00FC009C018C030C0321
:104490000C060C0C000000000000000000000000F2
:1044A0000000C000C000C000C000C000C000C000CC
:1044B000C000C000C000C000C000C000C000C000FC
:1044C000C000C0000000000000000000000000006C
:1044D0000000000000000000000000007C3CFF7EA7
:1044E000C7E383C183C183C183C183C183C183C146
:1044F00083C183C100000000000000000000000034
:104500000000000000000000000000009807F80F05
:10451000381C1818181818181818181818181818F7
:10452000181818180000000000000000000000002B
:10453000000000000000000000000000C003F00FB9
:10454000300C181818181818181818181818300CD3
:10455000F00FC00300000000000000000000000099
:10456000000000000000000000000000D803F80F69
:10457000380C181818181818181818181818380C93
:10458000F80FD803180018001800180018000000D1
:10459000000000000000000000000000C01BF01F31
:1045A000301C181818181818181818181818301C53
:1045B000F01FC01B00180018001800180018000099
:1045C000000000000000000000000000B007F00341
:1045D000700030003000300030003000300030001B
:1045E000300030000000000000000000000000006B
:1045F000000000000000000000000000E003F003E5
:10460000380E180C3800F003C007000C180C380ED8
:10461000F007E003000000000000000000000000C0
:10462000000000008000C000C000C000F007F007DC
:10463000C000C000C000C000C000C000C000C0007A
:10464000C00780070000000000000000000000001C
:1046500000000000000000000000000018181818FA
:104660001818181818181818181818181818381CA6
:10467000F01FE01900000000000000000000000032
:104680000000000000000000000000000C18180CE2
:10469000180C180C30063006300660036003600307
:1046A000C001C00100000000000000000000000088
:1046B000000000000000000000000000C141C141F6
:1046C000C3616363636363633636363636361C1CF8
:1046D0001C1C1C1C0000000000000000000000006A
:1046E0000000000000000000000000001C38381C22
:1046F000300C600660036003600360036006300CEA
:10470000381C1C3800000000000000000000000001
:104710000000000000000000000000001830301809
:1047200030187018600C600CE00CC006C0068003E6
:104730008003800380018001C001F0007000000050
:10474000000000000000000000000000FC1FFC1F33
:10475000000C000600038001C0006000300018005B
:10476000FC1FFC1F00000000000000000000000013
:10477000000000038001C000C000C000C000C000F5
:10478000C00060006000300060004000C000C00059
:10479000C000C000C000C000800100030000000095
:1047A0000000800180018001800180018001800182
:1047B00080018001800180018001800180018001F1
:1047C0008001800180018001800180018001000062
:1047D00000006000C000C0018001800180018001F4
:1047E0008001000300030006000300018001800136
:1047F0008001800180018001C00060000000000095
:1048000000000000000000000000000000000000A8
:10481000F010F81F080F000000000000000000006A
:104820000000000000000000000000000000000088
:1048300080470000814E0000815800008140000048
:10484000000000003C3C2D4754502D4552524F5221
:104850002D3E3E2049324320526561643A20307833
:10486000253034582C2025642062797465732066C5
:1048700061696C65642C20657272636F64653A20AF
:104880002564212050726F636573732072657365B0
:10489000742E0A003C3C2D4754502D4552524F5225
:1048A0002D3E3E204932432057726974653A2030CC
:1048B00078253034582C2025642062797465732063
:1048C0006661696C65642C20657272636F64653A19
:1048D000202564212050726F6365737320726573A5
:1048E00065742E0A0000000008490008000000203E
:1048F000D0020000F2020008F4490008D0020020B3
:1049000068040000BC2F0008412D010203040415B7
:104910000607080922A0136036130810721833FF27
:10492000FF0212D0172003E001053C70090108289E
:104930000C50320305300C17191E148B2B0D333518
:104940000C08149A031152012A3232355894C502C8
:104950001404B02313932B137B35136941135B4F5E
:1049600002245B280E020406080A0C0E101214160C
:10497000181A9309121F18110F10121316181C1D64
:104980001E1F2021222426FF0139C299014B480114
:10499000BA2A0DBA9A0FBA413E8A2A0C4547BA5430
:1049A00002022D2B0364BA1B2864BA1A07BA139C9F
:1049B0002C138F3413843F137C4C13775B022477C2
:1049C000380D18161412100E0C0A0806040290D1A5
:1049D00089AF3D1312100F2559B1011005F12401C3
:1049E00080470A11FF01811410270174E803325235
:0449F00002000000C1
:04000005080001AD41
:00000001FF
